:020000040800F2
:1000000000280020BD1400084D14000853140008F7
:10001000591400085F14000865140008000000006F
:100020000000000000000000000000006B14000849
:100030007714000800000000831400088F140008E3
:100040000515000805150008051500080515000828
:100050000515000805150008051500080515000818
:100060000515000805150008051500080515000808
:1000700005150008051500080515000805150008F8
:1000800005150008051500080515000805150008E8
:1000900005150008051500080515000805150008D8
:1000A00005150008051500080515000805150008C8
:1000B0009D14000805150008000000000515000843
:1000C00005150008000000000000000005150008EC
:1000D00000000000051500080515000800000000DC
:1000E00005150008051500080515000800000000AA
:1000F0000000000000000000000000000000000000
:0C01000000000000000000005FF808F1A3
:10010C0010B5054C237833B9044B13B10448AFF345
:10011C0000800123237010BD64000020000000004B
:10012C00042B000808B5034B1BB103490348AFF37C
:10013C00008008BD0000000068000020042B0008AF
:10014C0080B400AF064B1B68002B04D0044B00227C
:10015C001A60012300E000231846BD4680BC70479E
:10016C008000002080B400AF064B1B68002B04D02D
:10017C00044B00221A60012300E000231846BD4600
:10018C0080BC70478400002080B400AF064B1B6815
:10019C00002B04D0044B00221A60012300E0002342
:1001AC001846BD4680BC70478800002080B483B0E0
:1001BC0000AF78607B68002B03D10B4B01221A60D7
:1001CC000CE07B68012B03D1084B01221A6005E07F
:1001DC007B68022B02D1064B01221A6000BF0C3740
:1001EC00BD4680BC704700BF80000020840000200A
:1001FC008800002080B586B000AF474A07F108039D
:10020C0007CA83E80700454A3B4692E8030018609A
:10021C000433198000237B6176E0414A7B6952F8F4
:10022C00232040497B6941F823203F4A7B6952F8DF
:10023C0023203B497B6941F823207B699B0007F114
:10024C001802134453F8102C7B695B0007F118015A
:10025C000B4433F8183C1946104601F039FC0346A0
:10026C001946314A7B6942F823102E4A7B6952F8B1
:10027C0023202B497B6951F823309A422AD1284AF2
:10028C007B6952F8232028497B6951F823309A4224
:10029C0020D1264A7B6952F8232023497B6951F8E7
:1002AC0023309A422DD0204A7B6952F823201F49D3
:1002BC007B6941F823201C4A7B6952F82330012BBF
:1002CC0002D17869FFF772FF194A7B69C82142F89D
:1002DC00231016E0164A7B6952F823305A1E144933
:1002EC007B6941F82320124A7B6952F82330002B9A
:1002FC0007D17869FFF75AFF0D4A7B69C82142F88C
:10030C0023107B6901337B617B69022B85DD00BF88
:10031C0000BF1837BD4680BD1C2B0008282B0008D9
:10032C000C000020000000201800002024000020F9
:10033C003000002080B483B000AF03460A46FB7146
:10034C001346BB71FB79632B01D96323FB71BB791A
:10035C00632B01D96323BB71FB791D4AA2FB0323D9
:10036C00DB08DBB21A461B4B9A5C1B4B1A70FA79F2
:10037C00174BA3FB0213D9080B469B000B445B00E5
:10038C00D31ADBB21A46134B9A5C134B5A70BB79D7
:10039C000F4AA2FB0323DB08DBB21A460D4B9A5C17
:1003AC000D4B9A70BA790A4BA3FB0213D9080B4672
:1003BC009B000B445B00D31ADBB21A46054B9A5CCC
:1003CC00054BDA7000BF0C37BD4680BC704700BFD0
:1003DC00CDCCCCCC302B00087C01002080B500AFFC
:1003EC0001227E211F4801F08AFB1F4B1B78032B37
:1003FC0036D801A252F823F0150400082B0400088B
:10040C00410400085704000800220221154801F09D
:10041C0076FB00224021134801F071FB20E0002202
:10042C000221104801F06BFB002220210D4801F045
:10043C0066FB15E0002208210A4801F060FB00224F
:10044C001021084801F05BFB0AE00022042105485A
:10045C0001F055FB00221021024801F050FB00BFB7
:10046C0000BF80BD000801408C00002080B500AFAB
:10047C003F4B1B78032B6DD801A252F823F000BF21
:10048C009D040008CB040008FF0400082D0500089B
:10049C00384B1B68384A1360364B1B68374A13605D
:1004AC00344B1B68364A1360314B01221A70314BA6
:1004BC001B68642202FB03F3324A13604AE0324B9E
:1004CC001B682D4A13602B4B1A682F4B1B68134467
:1004DC002A4A13602C4B1B68294A1360244B0222B6
:1004EC001A70294B1B68642202FB03F3254A136024
:1004FC0030E0204B1B68204A13601E4B1B681F4AC0
:10050C0013601C4B1B681E4A1360194B03221A7094
:10051C00184B1B68642202FB03F31A4A136019E0A0
:10052C00144B1A68184B1B681344134A1360164B70
:10053C001B68124A1360144B1B68114A13600C4B56
:10054C0000221A70104B1B68642202FB03F30D4A45
:10055C00136000BFFFF742FF074B1B68DBB2074A73
:10056C001268D2B211461846FFF7E4FE00BF80BDF8
:10057C008C000020440000209400002098000020F3
:10058C0090000020A00000204800002080B500AFA3
:10059C001F4B1B681F4A13601F4B1B681F4A1360BD
:1005AC001F4B1B681F4A13601F4B01221A701F4BF5
:1005BC0000221A701A4B1B681D4A1360184B1A68DC
:1005CC00154B1B6813441B4A1360154B1B681A4AC6
:1005DC001360FFF703FF174B1B68DBB2164A126858
:1005EC00D2B211461846FFF7A5FE0D4B1B686422CC
:1005FC0002FB03F3114A1360114B64221A60114B76
:10060C0032221A60104B00221A6000BF80BD00BF5E
:10061C00400000204C00002044000020500000202E
:10062C0048000020540000203C0000208C000020DA
:10063C00900000209400002098000020A0000020D2
:10064C00A4000020A80000209C00002080B500AF72
:10065C00FFF776FD0346002B21D03D4B1B78013371
:10066C00DAB23B4B1A703A4B1B78042B05D9FFF7C7
:10067C008DFF374B01221A7068E0364B1B68364AE7
:10068C001360364B1B68364A1360364B1B68364A70
:10069C001360364B32221A60354B00221A60FFF77A
:1006AC0061FD0346002B28D0294B1B78042B1AD054
:1006BC00042B24DC022B02D0032B0AD01FE0264B88
:1006CC001B68622B1DDC244B1B680133224A136010
:1006DC0017E0234B1B68622B15DC214B1B68013385
:1006EC001F4A13600FE0204B1B68622B0DDC1E4B66
:1006FC001B6801331C4A136007E000BF06E000BF13
:10070C0004E000BF02E000BF00E000BFFFF73CFDCB
:10071C000346002B1AD00E4B1B78042B10D0042B45
:10072C0013DC022B02D0032B05D00EE00A4B1B6806
:10073C00084A13600AE00A4B1B68084A136005E07C
:10074C00094B1B68074A136000E000BF80BD00BF67
:10075C003C000020400000204C0000204400002001
:10076C00500000204800002054000020A800002069
:10077C009C00002080B500AF3A4B1B78013B032B4B
:10078C006ED801A252F823F06B080008A5070008E8
:10079C00E707000829080008334B1B68002B0FD013
:1007AC0000220221314801F0AAF9002210212F4821
:1007BC0001F0A5F901226C212C4801F0A0F904E00C
:1007CC0001227E21294801F09AF9294B1B68DBB2E2
:1007DC0002211846FFF7AEFD42E0234B1B68002BAD
:1007EC000FD000220421214801F089F90022202198
:1007FC001E4801F084F901225A211C4801F07FF9AE
:10080C0004E001227E21194801F079F9194B1B688B
:10081C00DBB203211846FFF78DFD21E0124B1B685C
:10082C00002B0FD000220821104801F068F900229B
:10083C0040210E4801F063F9012236210B4801F0EA
:10084C005EF904E001227E21084801F058F90A4BB8
:10085C001B68DBB204211846FFF76CFD00E000BFFB
:10086C0000BF80BD3C0000209C000020000801401F
:10087C004C000020500000205400002080B500AF38
:10088C00FFF7E4FE344B1B78012B46D1334B1A682F
:10089C00334B1B681A44334B1B689A4201D0FFF749
:1008AC0075FE314B1B68002B04DD2F4B1B68013B85
:1008BC002D4A13602C4B1B68002B1EDC2A4B642228
:1008CC001A602A4B1B68012B04DD284B1B68013B6B
:1008DC00264A1360264B1B68012B04DD244B1B6836
:1008EC00013B234A1360214B1B68DBB2204A126880
:1008FC00D2B211461846FFF71DFD1E4B1B68002B8C
:10090C0004DD1C4B1B68013B1A4A1360194B1B6816
:10091C00002B1EDCFFF7AAFD1BE0174B1B68002BFE
:10092C0004DD154B1B68013B134A1360124B1B680B
:10093C00002B0CDC104B32221A60104B1B68002B66
:10094C000CBF01230023DBB21A460C4B1A60FFF7D5
:10095C0011FF00BF80BD00BF3C00002048000020FC
:10096C004400002040000020A4000020940000203F
:10097C0098000020A0000020A80000209C0000206F
:10098C0080B500AF01224FF4F061024801F0B7F8D6
:10099C0000BF80BD0008014080B582B000AF0346A7
:1009AC00FB71FB7903F00103002B0CBF0123002327
:1009BC00DBB21A4602212A4801F0A1F8FB7903F0B8
:1009CC000203002B0CBF01230023DBB21A460421C7
:1009DC00234801F094F8FB7903F00403002B0CBFBF
:1009EC0001230023DBB21A4608211D4801F087F8C9
:1009FC00FB7903F00803002B0CBF01230023DBB2AF
:100A0C001A461021164801F07AF8FB7903F010030E
:100A1C00002B0CBF01230023DBB21A462021104807
:100A2C0001F06DF8FB7903F02003002B0CBF0123C0
:100A3C000023DBB21A464021094801F060F8FB792B
:100A4C0003F04003002B0CBF01230023DBB21A463A
:100A5C008021034801F053F800BF0837BD4680BD24
:100A6C00000C014080B500AFFFF78AFF264B1B78C6
:100A7C00032B3AD801A252F823F000BF990A0008C0
:100A8C00AF0A0008C70A0008DF0A00081F4B1B78D2
:100A9C001846FFF781FF002280211D4801F02FF836
:100AAC0023E01A4B5B781846FFF776FF00224FF4D1
:100ABC008071174801F023F817E0144B9B78184607
:100ACC00FFF76AFF00224FF40071114801F017F88C
:100ADC000BE00E4BDB781846FFF75EFF00224FF45D
:100AEC0080610B4801F00BF800BF074B1B780133FA
:100AFC005A4203F0030302F0030258BF5342DAB226
:100B0C00014B1A7000BF80BDAC0000207C0100209E
:100B1C000008014080B500AF00F0F0FC00F026F8B2
:100B2C0000F060F800F0AAF80C4801F02DFC00F081
:100B3C0037F9FFF72BFD01220021094800F09AF943
:100B4C0001220121074800F095F9012202210648F3
:100B5C0000F090F900F0DEFBFCE700BF8001002004
:100B6C0001020008710A00088908000880B590B0DD
:100B7C0000AF07F1180328220021184601F0B4FF3A
:100B8C003B1D00221A605A609A60DA601A610223D7
:100B9C00BB610123BB621023FB6200237B6307F163
:100BAC001803184600F0C4FF0346002B01D000F0D8
:100BBC00F2F80F237B600023BB600023FB60002353
:100BCC003B6100237B613B1D0021184601F030FA8C
:100BDC000346002B01D000F0DEF800BF4037BD46C5
:100BEC0080BD000080B586B000AF07F1080300227D
:100BFC001A605A609A60DA603B4600221A605A60AA
:100C0C001D4B4FF080421A601B4B41F63F725A60ED
:100C1C00194B00229A60184B0922DA60164B0022FD
:100C2C001A61154B00229A61134801F05DFB0346D3
:100C3C00002B01D000F0AFF84FF48053BB6007F1EC
:100C4C00080319460C4801F0DBFC0346002B01D0CD
:100C5C0000F0A1F800233B6000237B603B46194663
:100C6C00054801F0B3FE0346002B01D000F093F8C9
:100C7C0000BF1837BD4680BD8001002080B588B00C
:100C8C0000AF07F1100300221A605A609A60DA6014
:100C9C00354B9B69344A43F010039361324B9B698B
:100CAC0003F01003FB60FB682F4B9B692E4A43F04B
:100CBC00040393612C4B9B6903F00403BB60BB687A
:100CCC00294B9B69284A43F008039361264B9B6987
:100CDC0003F008037B607B68002240F2FE7123481E
:100CEC0000F00DFF002247F6FE71214800F007FFCF
:100CFC004FF400533B6100237B610123BB6107F17F
:100D0C00100319461B4800F069FD40F2FE733B616D
:100D1C0001237B610023BB610223FB6107F11003FC
:100D2C001946124800F05AFD47F6FE733B61012349
:100D3C007B610023BB610223FB6107F110031946A1
:100D4C000B4800F04BFD4FF440433B6100237B61AB
:100D5C000123BB6107F110031946044800F03EFD66
:100D6C0000BF2037BD4680BD001002400008014086
:100D7C00000C01400010014080B582B000AF7860DB
:100D8C007B681B68B3F1804F01D100F053F800BFB2
:100D9C000837BD4680BD80B400AF72B600BFFEE719
:100DAC0080B483B000AF214B00221A600023FB718A
:100DBC0033E0FA791E4913469B0013449B000B4405
:100DCC0000221A60FA791A4913469B0013449B00BF
:100DDC000B44043300221A60FA79154913469B0020
:100DEC0013449B000B44083300221A60FA79104913
:100DFC0013469B0013449B000B440C3300221A70C7
:100E0C00FA790B4913469B0013449B000B44103397
:100E1C0000221A60FB790133FB71FB79092BC8D9CD
:100E2C0000BF00BF0C37BD4680BC70477801002066
:100E3C00B000002080B400AF0D4B1B68002B13D00A
:100E4C000B4B1B7B002B0FD1094B5B68002B04D089
:100E5C00074B5B68013B064A5360054B5B68002BF4
:100E6C0002D1034B01221A7300BFBD4680BC7047F0
:100E7C00B000002090B589B000AFF860B9607A601E
:100E8C000023FB770023BB6100233B610023FB772E
:100E9C003EE1FA7FA34913469B0013449B000B448D
:100EAC0004331B68BA691344BB61BA69BB689A42C4
:100EBC0040F2CC80FA7F9B4913469B0013449B0065
:100ECC000B4404331A68BB69D31ABA6813443B61E8
:100EDC00FA7FB969BB68C91A924813469B00134440
:100EEC009B000344043319600923FB7557E0FB7D19
:100EFC005A1E8C4913469B0013449B000B441B68E1
:100F0C00002B49D0FB7D591EFA7D86480B469B0071
:100F1C000B449B0003441968824813469B001344FE
:100F2C009B0003441960FB7D591EFA7D7D480B46DE
:100F3C009B000B449B000344083319687948134603
:100F4C009B0013449B00034408331960FB7D591E1E
:100F5C00FA7D74480B469B000B449B0003440433FE
:100F6C001968704813469B0013449B0003440433D8
:100F7C001960FB7D591EFA7D6A480B469B000B4499
:100F8C009B00034410331968664813469B001344B6
:100F9C009B00034410331960FB7D013BFB75FA7D0C
:100FAC00FB7F9A42A3D8FA7F5E4913469B001344F9
:100FBC009B000B44FA681A60FA7F5A4913469B004F
:100FCC0013449B000B4404333A691A60FA7F554969
:100FDC0013469B0013449B000B4408337A681A6039
:100FEC00FA7F504913469B0013449B000B44043377
:100FFC001B68002B0AD1FA7F4A4913469B00134405
:10100C009B000B440C3301221A7009E0FA7F45490E
:10101C0013469B0013449B000B440C3300221A70A4
:10102C00FC7F00F09FF902463E4923469B00234477
:10103C009B000B4410331A60FA7F3A4913469B000D
:10104C0013449B000B4410331B6867E0FA7F35494F
:10105C0013469B0013449B000B441B68002B54D17C
:10106C00FA7F304913469B0013449B000B44FA68EB
:10107C001A60FA7FB968BB69C91A2A4813469B00E3
:10108C0013449B00034404331960FA7F254913462B
:10109C009B0013449B000B4408337A681A60FA7F58
:1010AC00204913469B0013449B000B4404331B68DC
:1010BC00002B0AD1FA7F1B4913469B0013449B005B
:1010CC000B440C3301221A7009E0FA7F15491346C0
:1010DC009B0013449B000B440C3300221A70FC7FC2
:1010EC0000F040F902460F4923469B0023449B0025
:1010FC000B4410331A60FA7F0A4913469B001344C1
:10110C009B000B4410331B6808E0FB7F0133FB771B
:10111C00FB7F092B7FF6BDAE034B1B6818462437AB
:10112C00BD4690BDB00000207801002080B485B091
:10113C0000AF786000237B737B68002B00F0E280AB
:10114C000023FB73DAE0FA7B714913469B001344CE
:10115C009B000B4410331B687A689A4240F0CB809A
:10116C0001237B73FB7B002B2BD0FB7B082B28D81C
:10117C00FB7B5A1C664913469B0013449B000B4493
:10118C001B68002B1DD0FB7B5A1C614913469B002E
:10119C0013449B000B4404331968FA7B5C481346D8
:1011AC009B0013449B00034404331B68FA7B0132FD
:1011BC001944574813469B0013449B0003440433C3
:1011CC001960FB7BBB7360E0BB7B591CBA7B50483E
:1011DC000B469B000B449B00034419684C48134678
:1011EC009B0013449B0003441960BB7B591CBA7BC6
:1011FC0047480B469B000B449B000344083319687B
:10120C00434813469B0013449B0003440833196066
:10121C00BB7B591CBA7B3E480B469B000B449B0086
:10122C000344043319683A4813469B0013449B004B
:10123C00034404331960BB7B591CBA7B34480B46FE
:10124C009B000B449B0003440C3318783049134625
:10125C009B0013449B000B440C3302461A70BB7B5F
:10126C00591CBA7B2A480B469B000B449B00034439
:10127C0010331968264813469B0013449B00034403
:10128C0010331960BB7B0133BB73BB7B082B9BD921
:10129C00BA7B1F4913469B0013449B000B4400224E
:1012AC001A60BA7B1A4913469B0013449B000B44EB
:1012BC00083300221A60BA7B154913469B0013446D
:1012CC009B000B44043300221A60BA7B104913466E
:1012DC009B0013449B000B440C3300221A70BA7B06
:1012EC000B4913469B0013449B000B441033002204
:1012FC001A607B7B07E0FB7B0133FB73FB7B092BC9
:10130C007FF621AF7B7B18461437BD4680BC7047F7
:10131C00B0000020B0B586B000AF114B1B7B002B8A
:10132C0019D00F4B1B6898470D4B00221A730C4BAE
:10133C003C1D1D460FCD0FC42B6823607B691846DE
:10134C00FFF7F4FEFB68002B05D07B68F968FA68A0
:10135C001846FFF78FFD00BF1837BD46B0BD00BF64
:10136C00B000002080B400AF094B1B680133084A61
:10137C001360074B1B68002B04D1054B1B68013312
:10138C00034A1360024B1B681846BD4680BC70476D
:10139C007801002080B485B000AF154B9B69144ACE
:1013AC0043F001039361124B9B6903F00103BB6093
:1013BC00BB680F4BDB690E4A43F08053D3610C4B77
:1013CC00DB6903F080537B607B680A4B5B68FB60D6
:1013DC00FB6823F0E063FB60FB6843F08063FB6019
:1013EC00044AFB68536000BF1437BD4680BC70478D
:1013FC00001002400000014080B584B000AF78605E
:10140C007B681B68B3F1804F13D10C4BDB690B4A23
:10141C0043F00103D361094BDB6903F00103FB606B
:10142C00FB68002200211C2000F0A1F91C2000F018
:10143C00BAF900BF1037BD4680BD00BF0010024096
:10144C0080B400AFFEE780B400AFFEE780B400AF1D
:10145C00FEE780B400AFFEE780B400AFFEE780B4D7
:10146C0000AF00BFBD4680BC704780B400AF00BF6A
:10147C00BD4680BC704780B400AF00BFBD4680BC89
:10148C00704780B500AF00F07FF800BF80BD000052
:10149C0080B500AF024800F0C3FF00BF80BD00BFA5
:1014AC008001002080B400AF00BFBD4680BC7047F7
:1014BC00FFF7F8FF0B480C490C4A002302E0D45804
:1014CC00C4500433C4188C42F9D3094A094C002384
:1014DC0001E013600432A242FBD301F0E1FAFFF702
:1014EC0019FB70470000002064000020682B0008E6
:1014FC0064000020CC010020FEE7000080B500AFA6
:10150C00084B1B68074A43F010031360032000F0DC
:10151C0023F90F2000F008F8FFF73CFF00231846D2
:10152C0080BD00BF0020024080B582B000AF786063
:10153C00124B1A68124B1B7819464FF47A73B3FB93
:10154C00F1F3B2FBF3F3184600F03BF90346002B22
:10155C0001D001230EE07B680F2B0AD8002279689A
:10156C004FF0FF3000F003F9064A7B68136000234C
:10157C0000E0012318460837BD4680BD5800002006
:10158C00600000205C00002080B400AF054B1B788D
:10159C001A46054B1B681344034A136000BFBD4633
:1015AC0080BC704760000020C801002080B400AFF0
:1015BC00024B1B681846BD4680BC7047C801002012
:1015CC0080B485B000AF78607B6803F00703FB60E4
:1015DC000C4BDB68BB60BA684FF6FF031340BB6073
:1015EC00FB681A02BB68134343F0BF6343F4003338
:1015FC00BB60044ABB68D36000BF1437BD4680BCD7
:10160C00704700BF00ED00E080B400AF044BDB6816
:10161C001B0A03F007031846BD4680BC704700BF89
:10162C0000ED00E080B483B000AF0346FB7197F986
:10163C000730002B0BDBFB7903F01F02064997F9EF
:10164C0007305B09012000FA02F241F8232000BFA9
:10165C000C37BD4680BC704700E100E080B483B01D
:10166C0000AF03463960FB7197F90730002B0ADB9A
:10167C003B68DAB20C4997F907301201D2B20B442D
:10168C0083F800230AE03B68DAB20849FB7903F0DF
:10169C000F03043B1201D2B20B441A7600BF0C3775
:1016AC00BD4680BC704700BF00E100E000ED00E0EB
:1016BC0080B489B000AFF860B9607A60FB6803F061
:1016CC000703FB61FB69C3F10703042B28BF042349
:1016DC00BB61FB690433062B02D9FB69033B00E0B9
:1016EC0000237B614FF0FF32BB6902FA03F3DA434C
:1016FC00BB681A407B699A404FF0FF317B6901FA55
:10170C0003F3D9437B680B40134318462437BD467B
:10171C0080BC704780B582B000AF78607B68013BBD
:10172C00B3F1807F01D301230FE00A4A7B68013BB0
:10173C0053600F214FF0FF30FFF790FF054B002255
:10174C009A60044B07221A60002318460837BD46DE
:10175C0080BD00BF10E000E080B582B000AF7860C3
:10176C007868FFF72DFF00BF0837BD4680BD80B5F8
:10177C0086B000AF0346B9607A60FB7300237B61CF
:10178C00FFF742FF78617A68B9687869FFF790FFD4
:10179C00024697F90F3011461846FFF75FFF00BF5E
:1017AC001837BD4680BD80B582B000AF0346FB71D3
:1017BC0097F907301846FFF735FF00BF0837BD46CD
:1017CC0080BD80B582B000AF78607868FFF7A2FF6B
:1017DC00034618460837BD4680BD000080B48BB068
:1017EC0000AF7860396000237B6200233B6248E1E4
:1017FC0001227B6A02FA03F3FB613B681B68FA69FE
:10180C001340BB61BA69FB699A4240F037813B686F
:10181C005B68A34A93425ED0A14A934275D8A14A11
:10182C00934258D09F4A93426FD89F4A934252D0CA
:10183C009D4A934269D89D4A93424CD09B4A93420D
:10184C0063D89B4A934246D0994A93425DD8122B57
:10185C002AD8122B59D801A252F823F0E318000809
:10186C00BD180008CF180008111900081719000836
:10187C00171900081719000817190008171900087C
:10188C00171900081719000817190008171900086C
:10189C00171900081719000817190008171900085C
:1018AC00C5180008D9180008824A934213D02CE0BE
:1018BC003B68DB683B6229E03B68DB6804333B62D6
:1018CC0024E03B68DB6808333B621FE03B68DB6865
:1018DC000C333B621AE03B689B68002B02D104235B
:1018EC003B6213E03B689B68012B05D108233B62EC
:1018FC007B68FA691A6109E008233B627B68FA6924
:10190C005A6103E000233B6200E000BFBB69FF2B80
:10191C0001D87B6801E07B6804337B61BB69FF2BDA
:10192C0002D87B6A9B0002E07B6A083B9B003B6110
:10193C007B691A680F213B6901FA03F3DB431A40F8
:10194C00396A3B6901FA03F31A437B691A603B68F5
:10195C005B6803F08053002B00F09080564B9B6922
:10196C00554A43F001039361534B9B6903F0010308
:10197C00BB60BB68514A7B6A9B08023352F8233028
:10198C00FB607B6A03F003039B000F2202FA03F354
:10199C00DB43FA681340FB607B68494A93420DD0E5
:1019AC007B68484A934207D07B68474A934201D1EF
:1019BC00022304E0032302E0012300E000237A6AFF
:1019CC0002F0030292009340FA681343FB603B4918
:1019DC007B6A9B080233FA6841F823203B685B68FA
:1019EC0003F48013002B06D0384B9A683749BB6937
:1019FC0013438B6006E0354B9A68BB69DB43334974
:101A0C0013408B603B685B6803F40013002B06D01B
:101A1C002E4BDA682D49BB691343CB6006E02B4B88
:101A2C00DA68BB69DB4329491340CB603B685B68D0
:101A3C0003F40033002B06D0244B5A682349BB69AE
:101A4C0013434B6006E0214B5A68BB69DB431F49CB
:101A5C0013404B603B685B6803F48033002B06D06B
:101A6C001A4B1A681949BB6913430B6006E0174BF4
:101A7C001A68BB69DB43154913400B607B6A013361
:101A8C007B623B681A687B6A22FA03F3002B7FF4B3
:101A9C00AFAE00BF00BF2C37BD4680BC704700BF47
:101AAC000000321000003110000022100000211044
:101ABC000000121000001110001002400000014044
:101ACC0000080140000C01400010014000040140DE
:101ADC0080B485B000AF78600B467B807B689A68D9
:101AEC007B881340002B02D00123FB7301E0002301
:101AFC00FB73FB7B18461437BD4680BC704780B423
:101B0C0083B000AF78600B467B8013467B707B788C
:101B1C00002B03D07A887B681A6103E07B881A0457
:101B2C007B681A6100BF0C37BD4680BC7047000053
:101B3C0080B586B000AF78607B68002B01D10123A3
:101B4C006CE27B681B6803F00103002B00F08780BC
:101B5C00924B5B6803F00C03042B0CD08F4B5B682F
:101B6C0003F00C03082B12D18C4B5B6803F480330D
:101B7C00B3F5803F0BD1894B1B6803F40033002B6A
:101B8C006CD07B685B68002B68D1012346E27B68D4
:101B9C005B68B3F5803F06D1804B1B687F4A43F4EA
:101BAC00803313602EE07B685B68002B0CD17B4B81
:101BBC001B687A4A23F480331360784B1B68774A8E
:101BCC0023F4802313601DE07B685B68B3F5A02FC2
:101BDC000CD1724B1B68714A43F4802313606F4B1A
:101BEC001B686E4A43F4803313600BE06B4B1B682D
:101BFC006A4A23F480331360684B1B68674A23F4EA
:101C0C00802313607B685B68002B13D0FFF7CEFC3E
:101C1C00386108E0FFF7CAFC02463B69D31A642B13
:101C2C0001D90323FAE15D4B1B6803F40033002B4D
:101C3C00F0D014E0FFF7BAFC386108E0FFF7B6FC0F
:101C4C0002463B69D31A642B01D90323E6E1534BBB
:101C5C001B6803F40033002BF0D100E000BF7B685D
:101C6C001B6803F00203002B63D04C4B5B6803F042
:101C7C000C03002B0BD0494B5B6803F00C03082BB7
:101C8C001CD1464B5B6803F48033002B16D1434BBD
:101C9C001B6803F00203002B05D07B681B69012B2A
:101CAC0001D00123BAE13D4B1B6823F0F8027B689D
:101CBC005B69DB00394913430B603AE07B681B69B5
:101CCC00002B20D0364B01221A60FFF76FFC3861D5
:101CDC0008E0FFF76BFC02463B69D31A022B01D9D3
:101CEC0003239BE12D4B1B6803F00203002BF0D068
:101CFC002A4B1B6823F0F8027B685B69DB002749E1
:101D0C0013430B6015E0264B00221A60FFF74EFCC4
:101D1C00386108E0FFF74AFC02463B69D31A022BF4
:101D2C0001D903237AE11D4B1B6803F00203002B3E
:101D3C00F0D17B681B6803F00803002B3AD07B685A
:101D4C009B69002B19D0174B01221A60FFF72EFC50
:101D5C00386108E0FFF72AFC02463B69D31A022BD4
:101D6C0001D903235AE10D4B5B6A03F00203002BEC
:101D7C00F0D0012000F09AFA1CE00A4B00221A6005
:101D8C00FFF714FC38610FE0FFF710FC02463B69CB
:101D9C00D31A022B08D9032340E100BF00100240E4
:101DAC0000004242800442429E4B5B6A03F00203F5
:101DBC00002BE9D17B681B6803F00403002B00F0B7
:101DCC00A6800023FB75974BDB6903F08053002B37
:101DDC000DD1944BDB69934A43F08053D361914B03
:101DEC00DB6903F08053BB60BB680123FB758E4B32
:101DFC001B6803F48073002B18D18B4B1B688A4A29
:101E0C0043F480731360FFF7D1FB386108E0FFF7F0
:101E1C00CDFB02463B69D31A642B01D90323FDE0A9
:101E2C00814B1B6803F48073002BF0D07B68DB685C
:101E3C00012B06D17B4B1B6A7A4A43F001031362D8
:101E4C002DE07B68DB68002B0CD1764B1B6A754A46
:101E5C0023F001031362734B1B6A724A23F00403D1
:101E6C0013621CE07B68DB68052B0CD16D4B1B6A85
:101E7C006C4A43F0040313626A4B1B6A694A43F0D1
:101E8C00010313620BE0674B1B6A664A23F00103E4
:101E9C001362644B1B6A634A23F0040313627B686E
:101EAC00DB68002B15D0FFF781FB38610AE0FFF7E8
:101EBC007DFB02463B69D31A41F28832934201D929
:101ECC000323ABE0574B1B6A03F00203002BEED04D
:101EDC0014E0FFF76BFB38610AE0FFF767FB024683
:101EEC003B69D31A41F28832934201D9032395E01E
:101EFC004C4B1B6A03F00203002BEED1FB7D012B34
:101F0C0005D1484BDB69474A23F08053D3617B688A
:101F1C00DB69002B00F08180424B5B6803F00C0303
:101F2C00082B61D07B68DB69022B46D13F4B00222A
:101F3C001A60FFF73BFB386108E0FFF737FB0246FE
:101F4C003B69D31A022B01D9032367E0354B1B687D
:101F5C0003F00073002BF0D17B681B6AB3F5803F54
:101F6C0008D1304B5B6823F400327B689B682D49A9
:101F7C0013434B602B4B5B6823F474127B68196A18
:101F8C007B685B6A0B43274913434B60274B012249
:101F9C001A60FFF70BFB386108E0FFF707FB0246FE
:101FAC003B69D31A022B01D9032337E01D4B1B6865
:101FBC0003F00073002BF0D02FE01C4B00221A60B2
:101FCC00FFF7F4FA386108E0FFF7F0FA02463B69D4
:101FDC00D31A022B01D9032320E0124B1B6803F008
:101FEC000073002BF0D118E07B68DB69012B01D169
:101FFC00012313E00B4B5B68FB60FB6803F480323E
:10200C007B681B6A9A4206D1FB6803F470127B68EA
:10201C005B6A9A4201D0012300E00023184618376E
:10202C00BD4680BD0010024000700040600042427E
:10203C0080B584B000AF786039607B68002B01D12B
:10204C000123D0E06A4B1B6803F007033A689A42FD
:10205C0010D9674B1B6823F0070265493B68134393
:10206C000B60634B1B6803F007033A689A4201D07C
:10207C000123B8E07B681B6803F00203002B20D01F
:10208C007B681B6803F00403002B05D0594B5B687D
:10209C00584A43F4E06353607B681B6803F0080301
:1020AC00002B05D0534B5B68524A43F4605353608A
:1020BC00504B5B6823F0F0027B689B684D491343DF
:1020CC004B607B681B6803F00103002B40D07B68DE
:1020DC005B68012B07D1474B1B6803F40033002BC3
:1020EC0015D101237FE07B685B68022B07D1414B44
:1020FC001B6803F00073002B09D1012373E03D4BE7
:10210C001B6803F00203002B01D101236BE0394B58
:10211C005B6823F003027B685B68364913434B60B2
:10212C00FFF744FAF8600AE0FFF740FA0246FB6852
:10213C00D31A41F28832934201D9032353E02D4B39
:10214C005B6803F00C027B685B689B009A42EBD1E6
:10215C00274B1B6803F007033A689A4210D2244BB2
:10216C001B6823F0070222493B6813430B60204B8A
:10217C001B6803F007033A689A4201D0012332E04E
:10218C007B681B6803F00403002B08D0194B5B68B9
:10219C0023F4E0627B68DB68164913434B607B6871
:1021AC001B6803F00803002B09D0124B5B6823F467
:1021BC0060527B681B69DB000E4913434B6000F0D7
:1021CC0021F802460B4B5B681B0903F00F030A490D
:1021DC00CB5C22FA03F3094A1360094B1B681846BF
:1021EC00FFF7A2F9002318461037BD4680BD00BF8B
:1021FC0000200240001002403C2B00085800002038
:10220C005C00002080B487B000AF0023FB6000238B
:10221C00BB6000237B6100237B6000233B611E4B72
:10222C005B68FB60FB6803F00C03042B02D0082BEB
:10223C0003D027E0194B3B6127E0FB689B0C03F0B4
:10224C000F03174AD35C7B60FB6803F48033002BCD
:10225C0010D0114B5B685B0C03F00103114AD35C8B
:10226C00BB607B680D4A02FB03F2BB68B2FBF3F365
:10227C007B6104E07B680C4A02FB03F37B617B69A6
:10228C003B6102E0054B3B6100BF3B6918461C37C4
:10229C00BD4680BC704700BF0010024000127A009F
:1022AC004C2B00085C2B000800093D0080B485B065
:1022BC0000AF78600A4B1B680A4AA2FB03235B0A37
:1022CC007A6802FB03F3FB6000BFFB685A1EFA60DE
:1022DC00002BF9D100BF00BF1437BD4680BC70473E
:1022EC0058000020D34D621080B582B000AF7860EA
:1022FC007B68002B01D1012341E07B6893F83D30D2
:10230C00DBB2002B06D17B68002283F83C20786876
:10231C00FFF772F87B68022283F83D207B681A680D
:10232C007B6804331946104600F056FA7B6801228C
:10233C0083F846207B68012283F83E207B680122CB
:10234C0083F83F207B68012283F840207B680122C0
:10235C0083F841207B68012283F842207B680122AC
:10236C0083F843207B68012283F844207B68012298
:10237C0083F845207B68012283F83D200023184612
:10238C000837BD4680BD000080B485B000AF7860D2
:10239C007B6893F83D30DBB2012B01D0012335E093
:1023AC007B68022283F83D207B681B68DA687B68B7
:1023BC001B6842F00102DA607B681B68164A934284
:1023CC0009D07B681B68B3F1804F04D07B681B6815
:1023DC00124A934211D17B681B689B6803F0070378
:1023EC00FB60FB68062B10D07B681B681A687B6847
:1023FC001B6842F001021A6007E07B681B681A68D0
:10240C007B681B6842F001021A60002318461437DF
:10241C00BD4680BC704700BF002C0140000400404A
:10242C0080B584B000AF78607B681B68DB68FB60AC
:10243C007B681B681B69BB60BB6803F00203002B45
:10244C0020D0FB6803F00203002B1BD07B681B68B9
:10245C006FF002021A617B6801221A777B681B6895
:10246C009B6903F00303002B03D0786800F098F904
:10247C0005E0786800F08BF9786800F09AF97B68D1
:10248C0000221A77BB6803F00403002B20D0FB68F2
:10249C0003F00403002B1BD07B681B686FF0040255
:1024AC001A617B6802221A777B681B689B6903F4AC
:1024BC004073002B03D0786800F072F905E078685F
:1024CC0000F065F9786800F074F97B6800221A77DF
:1024DC00BB6803F00803002B20D0FB6803F0080353
:1024EC00002B1BD07B681B686FF008021A617B689D
:1024FC0004221A777B681B68DB6903F00303002B4B
:10250C0003D0786800F04CF905E0786800F03FF9EA
:10251C00786800F04EF97B6800221A77BB6803F0EC
:10252C001003002B20D0FB6803F01003002B1BD0F2
:10253C007B681B686FF010021A617B6808221A779F
:10254C007B681B68DB6903F44073002B03D078684D
:10255C0000F026F905E0786800F019F9786800F0C9
:10256C0028F97B6800221A77BB6803F00103002B63
:10257C000CD0FB6803F00103002B07D07B681B68B1
:10258C006FF001021A617868FEF7F6FBBB6803F086
:10259C008003002B0CD0FB6803F08003002B07D0CA
:1025AC007B681B686FF080021A61786800F06FFA24
:1025BC00BB6803F04003002B0CD0FB6803F0400316
:1025CC00002B07D07B681B686FF040021A6178689B
:1025DC0000F0F8F8BB6803F02003002B0CD0FB686C
:1025EC0003F02003002B07D07B681B686FF02002E0
:1025FC001A61786800F042FA00BF1037BD4680BD02
:10260C0080B584B000AF786039600023FB737B68C1
:10261C0093F83C30012B01D10223B4E07B680122FA
:10262C0083F83C207B68022283F83D207B681B6882
:10263C009B68BB60BB6823F07703BB60BB6823F46B
:10264C007F43BB607B681B68BA689A603B681B68F9
:10265C00B3F5005F3ED0B3F5005F00F28780B3F5B1
:10266C00805F00F08680B3F5805F7FD8702B1AD026
:10267C00702B7BD8602B50D0602B77D8502B3CD054
:10268C00502B73D8402B58D0402B6FD8302B64D0A4
:10269C00302B6BD8202B60D0202B67D8002B5CD034
:1026AC00102B5AD062E07B6818683B6899683B68CD
:1026BC005A683B68DB6800F06AF97B681B689B68AA
:1026CC00BB60BB6843F07703BB607B681B68BA6870
:1026DC009A604FE07B6818683B6899683B685A6859
:1026EC003B68DB6800F053F97B681B689A687B6871
:1026FC001B6842F480429A603CE07B6818683B6837
:10270C0059683B68DB681A4600F0CAF87B681B689E
:10271C005021184600F021F92CE07B6818683B68C2
:10272C0059683B68DB681A4600F0E8F87B681B6860
:10273C006021184600F011F91CE07B6818683B68B2
:10274C0059683B68DB681A4600F0AAF87B681B687E
:10275C004021184600F001F90CE07B681A683B68D0
:10276C001B681946104600F0F8F803E00123FB73D0
:10277C0000E000BF7B68012283F83D207B680022CB
:10278C0083F83C20FB7B18461037BD4680BD80B4D7
:10279C0083B000AF786000BF0C37BD4680BC70477B
:1027AC0080B483B000AF786000BF0C37BD4680BCEE
:1027BC00704780B483B000AF786000BF0C37BD4663
:1027CC0080BC704780B483B000AF786000BF0C371A
:1027DC00BD4680BC7047000080B485B000AF786007
:1027EC0039607B681B68FB607B682B4A934207D07F
:1027FC007B68B3F1804F03D07B68284A934208D1A1
:10280C00FB6823F07003FB603B685B68FA6813435A
:10281C00FB607B68204A934207D07B68B3F1804F02
:10282C0003D07B681D4A934208D1FB6823F44073A4
:10283C00FB603B68DB68FA681343FB60FB6823F0C2
:10284C0080023B685B691343FB607B68FA681A6023
:10285C003B689A687B68DA623B681A687B689A62A4
:10286C007B680D4A934203D13B681A697B681A63F3
:10287C007B6801225A617B681B6903F00103002B02
:10288C0005D07B681B6923F001027B681A6100BFCD
:10289C001437BD4680BC7047002C0140000400403A
:1028AC0080B487B000AFF860B9607A60FB681B6ACF
:1028BC007B61FB681B6A23F00102FB681A62FB68F0
:1028CC009B693B613B6923F0F0033B617B681B0117
:1028DC003A6913433B617B6923F00A037B617A6994
:1028EC00BB6813437B61FB683A699A61FB687A6940
:1028FC001A6200BF1C37BD4680BC704780B487B0DD
:10290C0000AFF860B9607A60FB681B6A7B61FB689A
:10291C001B6A23F01002FB681A62FB689B693B611F
:10292C003B6923F470433B617B681B033A69134397
:10293C003B617B6923F0A0037B61BB681B017A6957
:10294C0013437B61FB683A699A61FB687A691A6286
:10295C0000BF1C37BD4680BC704780B485B000AF4B
:10296C00786039607B689B68FB60FB6823F07003C0
:10297C00FB603A68FB68134343F00703FB607B681A
:10298C00FA689A6000BF1437BD4680BC704780B4AB
:10299C0087B000AFF860B9607A603B60FB689B68F9
:1029AC007B617B6923F47F437B613B681A027B6804
:1029BC001A43BB6813437A6913437B61FB687A69DA
:1029CC009A6000BF1C37BD4680BC704780B485B090
:1029DC0000AF786039607B6893F83C30012B01D1F3
:1029EC00022341E07B68012283F83C207B680222B1
:1029FC0083F83D207B681B685B68FB607B681B6809
:102A0C009B68BB60FB6823F07003FB603B681B6832
:102A1C00FA681343FB607B681B68FA685A607B6832
:102A2C001B68144A934209D07B681B68B3F1804F32
:102A3C0004D07B681B68104A93420CD1BB6823F00E
:102A4C008003BB603B685B68BA681343BB607B6800
:102A5C001B68BA689A607B68012283F83D207B680A
:102A6C00002283F83C20002318461437BD4680BC56
:102A7C00704700BF002C01400004004080B483B0BC
:102A8C0000AF786000BF0C37BD4680BC704780B487
:102A9C0083B000AF786000BF0C37BD4680BC704778
:102AAC0070B500260C4D0D4C641BA410A64209D128
:102ABC0000F022F800260A4D0A4C641BA410A64212
:102ACC0005D170BD55F8043B98470136EEE755F833
:102ADC00043B98470136F2E7602B0008602B000896
:102AEC00602B0008642B000803460244934200D17B
:102AFC00704703F8011BF9E7F8B500BFF8BC08BC38
:102B0C009E467047F8B500BFF8BC08BC9E4670479F
:102B1C000010014000080140000801400020004066
:102B2C00008000003F065B4F666D7D077F6F0000E5
:102B3C000000000000000000010203040607080961
:102B4C0002030405060708090A0B0C0D0E0F1010E2
:042B5C000102000072
:042B60003101000837
:042B64000D01000857
:102B68000100000001000000010000000100000059
:102B78000100000001000000010000000100000049
:102B88000100000001000000010000000100000039
:102B9800C8000000C8000000C800000001000000D4
:102BA800050000000200000003000000050000000E
:102BB800020000000300000000127A00100000006C
:042BC8000100000008
:04000005080014BD1E
:00000001FF
