:020000040800F2
:1000000000280020950F0008250F00082B0F00087E
:10001000310F0008370F00083D0F000800000000F6
:10002000000000000000000000000000430F000876
:100030004F0F0008000000005B0F0008670F00086A
:10004000DD0F0008DD0F0008DD0F0008DD0F0008E0
:10005000DD0F0008DD0F0008DD0F0008DD0F0008D0
:10006000DD0F0008DD0F0008DD0F0008DD0F0008C0
:10007000DD0F0008DD0F0008DD0F0008DD0F0008B0
:10008000DD0F0008DD0F0008DD0F0008DD0F0008A0
:10009000DD0F0008DD0F0008DD0F0008DD0F000890
:1000A000DD0F0008DD0F0008DD0F0008DD0F000880
:1000B000750F0008DD0F000800000000DD0F0008CC
:1000C000DD0F00080000000000000000DD0F000848
:1000D00000000000DD0F0008DD0F00080000000038
:1000E000DD0F0008DD0F0008DD0F00080000000034
:1000F0000000000000000000000000000000000000
:0C01000000000000000000005FF808F1A3
:10010C0010B5054C237833B9044B13B10448AFF345
:10011C0000800123237010BD64000020000000004B
:10012C00DC25000808B5034B1BB103490348AFF3AA
:10013C00008008BD0000000068000020DC250008DD
:10014C0080B400AF064B1B68002B04D0044B00227C
:10015C001A60012300E000231846BD4680BC70479E
:10016C008000002080B400AF064B1B68002B04D02D
:10017C00044B00221A60012300E000231846BD4600
:10018C0080BC70478400002080B400AF064B1B6815
:10019C00002B04D0044B00221A60012300E0002342
:1001AC001846BD4680BC70478800002080B483B0E0
:1001BC0000AF78607B68002B03D10B4B01221A60D7
:1001CC000CE07B68012B03D1084B01221A6005E07F
:1001DC007B68022B02D1064B01221A6000BF0C3740
:1001EC00BD4680BC704700BF80000020840000200A
:1001FC008800002080B586B000AF474A07F108039D
:10020C0007CA83E80700454A3B4692E8030018609A
:10021C000433198000237B6176E0414A7B6952F8F4
:10022C00232040497B6941F823203F4A7B6952F8DF
:10023C0023203B497B6941F823207B699B0007F114
:10024C001802134453F8102C7B695B0007F118015A
:10025C000B4433F8183C1946104601F0A5F9034637
:10026C001946314A7B6942F823102E4A7B6952F8B1
:10027C0023202B497B6951F823309A422AD1284AF2
:10028C007B6952F8232028497B6951F823309A4224
:10029C0020D1264A7B6952F8232023497B6951F8E7
:1002AC0023309A422DD0204A7B6952F823201F49D3
:1002BC007B6941F823201C4A7B6952F82330012BBF
:1002CC0002D17869FFF772FF194A7B69C82142F89D
:1002DC00231016E0164A7B6952F823305A1E144933
:1002EC007B6941F82320124A7B6952F82330002B9A
:1002FC0007D17869FFF75AFF0D4A7B69C82142F88C
:10030C0023107B6901337B617B69022B85DD00BF88
:10031C0000BF1837BD4680BDF42500080026000834
:10032C000C000020000000201800002024000020F9
:10033C003000002080B500AFFFF702FF0346002B12
:10034C001ED03D4B1B780133DAB23B4B1A703A4B43
:10035C001B78042B02D9384B01221A70374B1B68BF
:10036C00374A1360374B1B68374A1360374B1B688F
:10037C00374A1360374B00221A60374B00221A6041
:10038C00FFF7F0FE0346002B28D02B4B1B78042BD9
:10039C001AD0042B24DC022B02D0032B0AD01FE032
:1003AC00274B1B68622B1DDC254B1B680133244A31
:1003BC00136017E0244B1B68622B15DC224B1B6867
:1003CC000133214A13600FE0214B1B68622B0DDCBB
:1003DC001F4B1B6801331E4A136007E000BF06E089
:1003EC0000BF04E000BF02E000BF00E000BFFFF769
:1003FC00CBFE0346002B19D00F4B1B78042B10D0CF
:10040C00042B15DC022B02D0032B05D010E00C4B77
:10041C001B680A4A13600CE00B4B1B68094A1360FB
:10042C0007E00B4B1B68094A136002E000BF00E0B9
:10043C0000BF00BF80BD00BF3C000020400000207A
:10044C004C000020440000205000002048000020F8
:10045C00540000208C0000209000002080B500AFDC
:10046C00704B1B781A46704B1B689A420AD06D4B26
:10047C001B781A466C4B1A606C4B00221A606C4B42
:10048C0000221A60674B1B78013B032B00F2C780DC
:10049C0001A252F823F000BF29060008B504000899
:1004AC0031050008AD050008614B1B680133604A3B
:1004BC0013605F4B1B6840F6B732934225DD5C4BF3
:1004CC0000221A60594B1B68002B0CBF0123002320
:1004DC00DBB21A46554B1A60544B1B68002B0FD0DD
:1004EC0000220221534801F076F8002210215148D5
:1004FC0001F071F801226C214E4801F06CF804E017
:10050C0001227E214B4801F066F84B4B1B68002101
:10051C00184600F097F8484B1B680121184600F06C
:10052C0091F87CE0424B1B680133414A1360404B0D
:10053C001B6840F6B732934225DD3D4B00221A6012
:10054C003A4B1B68002B0CBF01230023DBB21A466D
:10055C00364B1A60354B1B68002B0FD00022042140
:10056C00344801F038F800222021324801F033F8E9
:10057C0001225A212F4801F02EF804E001227E219D
:10058C002C4801F028F82D4B1B680021184600F070
:10059C0059F82A4B1B680121184600F053F83EE02D
:1005AC00234B1B680133224A1360214B1B6840F616
:1005BC00B732934225DD1E4B00221A601B4B1B6881
:1005CC00002B0CBF01230023DBB21A46174B1A6019
:1005DC00164B1B68002B0FD000220821154800F089
:1005EC00FAFF00224021134800F0F5FF01223621CA
:1005FC00104800F0F0FF04E001227E210D4800F0CD
:10060C00EAFF0F4B1B680021184600F01BF80C4B3F
:10061C001B680121184600F015F800E000BF00BF70
:10062C0080BD00BF3C000020940000208C00002006
:10063C0090000020000801404C00002050000020D9
:10064C005400002080B483B000AF03460A46FB710F
:10065C001346BB71FB79632B01D96323FB71BB7907
:10066C00002B1BD1FB791F4AA2FB0323DB08DBB257
:10067C001A461D4B9A5C1D4B1A70FA79194BA3FB49
:10068C000213D9080B469B000B445B00D31ADBB258
:10069C001A46154B9A5C154B5A701DE0BB79012B11
:1006AC001AD1FB790F4AA2FB0323DB08DBB21A46F3
:1006BC000D4B9A5C0D4B9A70FA790A4BA3FB021303
:1006CC00D9080B469B000B445B00D31ADBB21A46CD
:1006DC00054B9A5C054BDA7000BF0C37BD4680BCED
:1006EC00704700BFCDCCCCCC08260008C40000203D
:1006FC0080B500AF01224FF4F061024800F06BFFAF
:10070C0000BF80BD0008014080B582B000AF034639
:10071C00FB71FB7903F00103002B0CBF01230023B9
:10072C00DBB21A4602212A4800F055FFFB7903F090
:10073C000203002B0CBF01230023DBB21A46042159
:10074C00234800F048FFFB7903F00403002B0CBF97
:10075C0001230023DBB21A4608211D4800F03BFFA1
:10076C00FB7903F00803002B0CBF01230023DBB241
:10077C001A461021164800F02EFFFB7903F01003E7
:10078C00002B0CBF01230023DBB21A46202110489A
:10079C0000F021FFFB7903F02003002B0CBF012399
:1007AC000023DBB21A464021094800F014FFFB7904
:1007BC0003F04003002B0CBF01230023DBB21A46CD
:1007CC008021034800F007FF00BF0837BD4680BDFD
:1007DC00000C014080B500AFFFF78AFF264B1B7859
:1007EC00032B3AD801A252F823F000BF09080008E5
:1007FC001F080008370800084F0800081F4B1B781B
:10080C001846FFF781FF002280211D4800F0E3FE0F
:10081C0023E01A4B5B781846FFF776FF00224FF463
:10082C008071174800F0D7FE17E0144B9B781846E0
:10083C00FFF76AFF00224FF40071114800F0CBFE65
:10084C000BE00E4BDB781846FFF75EFF00224FF4EF
:10085C0080610B4800F0BFFE00BF074B1B780133D3
:10086C005A4203F0030302F0030258BF5342DAB2B8
:10087C00014B1A7000BF80BDA0000020C4000020F6
:10088C000008014080B500AF01227E211F4800F016
:10089C00A2FE1F4B1B78032B36D801A252F823F073
:1008AC00BD080008D3080008E9080008FF08000884
:1008BC0000220221154800F08EFE00224021134830
:1008CC0000F089FE20E000220221104800F083FE97
:1008DC00002220210D4800F07EFE15E000220821A8
:1008EC000A4800F078FE00221021084800F073FE40
:1008FC000AE000220421054800F06DFE00221021C0
:10090C00024800F068FE00BF00BF80BD0008014037
:10091C009800002080B500AF334B1B78032B5FD8B9
:10092C0001A252F823F000BF450900087109000824
:10093C009D090008C10900082C4B1B682C4A136048
:10094C002A4B1B682B4A1360274B01221A70274B2A
:10095C001A681346DB009B1A1A01D31A184600F0CA
:10096C00F3F93DE0244B1B68214A1360234B1B68B1
:10097C00204A13601C4B02221A701F4B1A68134634
:10098C00DB009B1A1A01D31A184600F0DDF927E098
:10099C00164B1B68164A1360134B03221A70134B29
:1009AC001A681346DB009B1A1A01D31A184600F07A
:1009BC00CBF915E0104B1B680D4A13600E4B1B68EE
:1009CC000C4A1360084B00221A700B4B1A68134622
:1009DC00DB009B1A1A01D31A184600F0B5F900BFB8
:1009EC00FFF750FF00BF80BD98000020440000209E
:1009FC009C000020C800002048000020400000207F
:100A0C0080B500AF00F0E6FA00F082F800F0BCF818
:100A1C0000F006F9354801F023FA354B00221A7024
:100A2C00344B1B68344A1360344B02221A60314B2E
:100A3C001B68642202FB03F3184600F085F964205E
:100A4C0000F0AAF9022000F093F9FFF71BFF2A4BE4
:100A5C001B68DBB200211846FFF7F4FD264B1B6820
:100A6C00DBB201211846FFF7EDFD254B1B68012B6E
:100A7C0007D1234B00221A60FFF7ACFE022000F0D6
:100A8C0077F9FFF757FC1F4B1B78012B2AD11E4B14
:100A9C001B68012B1CD11C4B00221A60174B1B68C6
:100AAC00DBB200211846FFF7CDFD144B1B68DBB2FF
:100ABC0001211846FFF7C6FD104B1B68012B04DD06
:100ACC000E4B1B68013B0D4A1360642000F064F967
:100ADC000E4B1B68012BC8D10C4B00221A60FFF780
:100AEC0019FFC2E7FFF7BAFCBFE700BFCC0000203C
:100AFC0098000020480000209C000020C800002026
:100B0C00B00000203C000020B8000020A80000200D
:100B1C0080B590B000AF07F11803282200211846C9
:100B2C0001F04EFD3B1D00221A605A609A60DA609B
:100B3C001A610223BB610123BB621023FB620023F9
:100B4C007B6307F11803184600F05EFD0346002B8B
:100B5C0001D000F0F4F80F237B600023BB6000236E
:100B6C00FB6000233B6100237B613B1D0021184689
:100B7C0000F0CAFF0346002B01D000F0E0F800BFE4
:100B8C004037BD4680BD000080B586B000AF07F190
:100B9C00080300221A605A609A60DA603B46002211
:100BAC001A605A601D4B4FF080421A601B4B41F685
:100BBC003F725A60194B00229A60184B0922DA6076
:100BCC00164B00221A61154B00229A61134801F052
:100BDC00F7F80346002B01D000F0B1F84FF4805326
:100BEC00BB6007F1080319460C4801F075FA03467F
:100BFC00002B01D000F0A3F800233B6000237B60A6
:100C0C003B461946054801F04DFC0346002B01D02C
:100C1C0000F095F800BF1837BD4680BDCC00002011
:100C2C0080B588B000AF07F1100300221A605A603B
:100C3C009A60DA60354B9B69344A43F01003936138
:100C4C00324B9B6903F01003FB60FB682F4B9B69D5
:100C5C002E4A43F0040393612C4B9B6903F004036D
:100C6C00BB60BB68294B9B69284A43F0080393611E
:100C7C00264B9B6903F008037B607B68002240F2E3
:100C8C00FE71234800F0A7FC002247F6FE712148B4
:100C9C0000F0A1FC4FF400533B6100237B61012366
:100CAC00BB6107F1100319461B4800F003FB40F22F
:100CBC00FE733B6101237B610023BB610223FB615B
:100CCC0007F110031946124800F0F4FA47F6FE73C8
:100CDC003B6101237B610023BB610223FB6107F1B4
:100CEC00100319460B4800F0E5FA4FF440433B6102
:100CFC0000237B610123BB6107F1100319460448F3
:100D0C0000F0D8FA00BF2037BD4680BD001002406D
:100D1C0000080140000C01400010014080B582B079
:100D2C0000AF78607B681B68B3F1804F03D1FFF78D
:100D3C0061FA00F045F800BF0837BD4680BD80B4AD
:100D4C0000AF72B600BFFEE780B483B000AF78602E
:100D5C00054A7B681360054B00221A6000BF0C37F4
:100D6C00BD4680BC704700BFA4000020A800002036
:100D7C0080B483B000AF7860054A7B681360054B84
:100D8C0000221A6000BF0C37BD4680BC704700BF04
:100D9C00AC000020B000002080B483B000AF7860BD
:100DAC00054A7B681360054B00221A6000BF0C37A4
:100DBC00BD4680BC704700BFB4000020B8000020C6
:100DCC0080B400AF214B1B68002B0BDD1F4B1B6845
:100DDC00013B1E4A13601D4B1B68002B02DC1C4B95
:100DEC0001221A601B4B1B68002B0BDD194B1B6877
:100DFC00013B184A1360174B1B68002B02DC164B87
:100E0C0001221A60154B1B68002B0BDD134B1B6862
:100E1C00013B124A1360114B1B68002B02DC104B78
:100E2C0001221A600F4B1B68002B0BDD0D4B1B684E
:100E3C00013B0C4A13600B4B1B68002B02DC0A4B6A
:100E4C0001221A6000BFBD4680BC7047A400002080
:100E5C00A8000020AC000020B0000020B40000204E
:100E6C00B8000020BC000020C000002080B485B079
:100E7C0000AF154B9B69144A43F001039361124B6D
:100E8C009B6903F00103BB60BB680F4BDB690E4A27
:100E9C0043F08053D3610C4BDB6903F080537B60D0
:100EAC007B680A4B5B68FB60FB6823F0E063FB60CC
:100EBC00FB6843F08063FB60044AFB68536000BF2F
:100ECC001437BD4680BC7047001002400000014042
:100EDC0080B584B000AF78607B681B68B3F1804F3D
:100EEC0013D10C4BDB690B4A43F00103D361094B63
:100EFC00DB6903F00103FB60FB68002200211C206E
:100F0C0000F0A1F91C2000F0BAF900BF1037BD4663
:100F1C0080BD00BF0010024080B400AFFEE780B47B
:100F2C0000AFFEE780B400AFFEE780B400AFFEE791
:100F3C0080B400AFFEE780B400AF00BFBD4680BCFC
:100F4C00704780B400AF00BFBD4680BC704780B412
:100F5C0000AF00BFBD4680BC704780B500AF00F04D
:100F6C007FF800BF80BD000080B500AF024800F0E4
:100F7C00C3FF00BF80BD00BFCC00002080B400AF19
:100F8C0000BFBD4680BC7047FFF7F8FF0B480C490B
:100F9C000C4A002302E0D458C4500433C4188C42C9
:100FAC00F9D3094A094C002301E013600432A24230
:100FBC00FBD301F0E1FAFFF723FD7047000000209E
:100FCC006400002040260008640000201801002066
:100FDC00FEE7000080B500AF084B1B68074A43F0E2
:100FEC0010031360032000F023F90F2000F008F821
:100FFC00FFF73CFF0023184680BD00BF00200240D5
:10100C0080B582B000AF7860124B1A68124B1B7817
:10101C0019464FF47A73B3FBF1F3B2FBF3F31846B2
:10102C0000F03BF90346002B01D001230EE07B6856
:10103C000F2B0AD8002279684FF0FF3000F003F92B
:10104C00064A7B681360002300E00123184608372A
:10105C00BD4680BD58000020600000205C000020D0
:10106C0080B400AF054B1B781A46054B1B68134424
:10107C00034A136000BFBD4680BC7047600000206F
:10108C001401002080B400AF024B1B681846BD460B
:10109C0080BC70471401002080B485B000AF78602C
:1010AC007B6803F00703FB600C4BDB68BB60BA6822
:1010BC004FF6FF031340BB60FB681A02BB68134377
:1010CC0043F0BF6343F40033BB60044ABB68D36096
:1010DC0000BF1437BD4680BC704700BF00ED00E078
:1010EC0080B400AF044BDB681B0A03F007031846FF
:1010FC00BD4680BC704700BF00ED00E080B483B0FB
:10110C0000AF0346FB7197F90730002B0BDBFB7923
:10111C0003F01F02064997F907305B09012000FA1A
:10112C0002F241F8232000BF0C37BD4680BC70474B
:10113C0000E100E080B483B000AF03463960FB717E
:10114C0097F90730002B0ADB3B68DAB20C4997F9A8
:10115C0007301201D2B20B4483F800230AE03B683B
:10116C00DAB20849FB7903F00F03043B1201D2B247
:10117C000B441A7600BF0C37BD4680BC704700BFCD
:10118C0000E100E000ED00E080B489B000AFF86051
:10119C00B9607A60FB6803F00703FB61FB69C3F17C
:1011AC000703042B28BF0423BB61FB690433062B04
:1011BC0002D9FB69033B00E000237B614FF0FF3257
:1011CC00BB6902FA03F3DA43BB681A407B699A40A5
:1011DC004FF0FF317B6901FA03F3D9437B680B4075
:1011EC00134318462437BD4680BC704780B582B087
:1011FC0000AF78607B68013BB3F1807F01D30123A2
:10120C000FE00A4A7B68013B53600F214FF0FF301F
:10121C00FFF790FF054B00229A60044B07221A60DF
:10122C00002318460837BD4680BD00BF10E000E023
:10123C0080B582B000AF78607868FFF72DFF00BFF3
:10124C000837BD4680BD80B586B000AF0346B96097
:10125C007A60FB7300237B61FFF742FF78617A6849
:10126C00B9687869FFF790FF024697F90F3011467D
:10127C001846FFF75FFF00BF1837BD4680BD80B52D
:10128C0082B000AF0346FB7197F907301846FFF7A1
:10129C0035FF00BF0837BD4680BD80B582B000AFBA
:1012AC0078607868FFF7A2FF034618460837BD46FA
:1012BC0080BD000080B48BB000AF78603960002333
:1012CC007B6200233B6248E101227B6A02FA03F352
:1012DC00FB613B681B68FA691340BB61BA69FB6927
:1012EC009A4240F037813B685B68A34A93425ED0D8
:1012FC00A14A934275D8A14A934258D09F4A93422F
:10130C006FD89F4A934252D09D4A934269D89D4AC6
:10131C0093424CD09B4A934263D89B4A934246D00B
:10132C00994A93425DD8122B2AD8122B59D801A274
:10133C0052F823F0BB13000895130008A7130008FC
:10134C00E9130008EF130008EF130008EF1300086F
:10135C00EF130008EF130008EF130008EF13000859
:10136C00EF130008EF130008EF130008EF13000849
:10137C00EF130008EF1300089D130008B1130008C9
:10138C00824A934213D02CE03B68DB683B6229E035
:10139C003B68DB6804333B6224E03B68DB68083362
:1013AC003B621FE03B68DB680C333B621AE03B6836
:1013BC009B68002B02D104233B6213E03B689B68C3
:1013CC00012B05D108233B627B68FA691A6109E09D
:1013DC0008233B627B68FA695A6103E000233B6295
:1013EC0000E000BFBB69FF2B01D87B6801E07B6884
:1013FC0004337B61BB69FF2B02D87B6A9B0002E044
:10140C007B6A083B9B003B617B691A680F213B6937
:10141C0001FA03F3DB431A40396A3B6901FA03F31F
:10142C001A437B691A603B685B6803F08053002B9E
:10143C0000F09080564B9B69554A43F00103936131
:10144C00534B9B6903F00103BB60BB68514A7B6A39
:10145C009B08023352F82330FB607B6A03F00303D2
:10146C009B000F2202FA03F3DB43FA681340FB6084
:10147C007B68494A93420DD07B68484A934207D017
:10148C007B68474A934201D1022304E0032302E024
:10149C00012300E000237A6A02F0030292009340D9
:1014AC00FA681343FB603B497B6A9B080233FA687A
:1014BC0041F823203B685B6803F48013002B06D0B3
:1014CC00384B9A683749BB6913438B6006E0354B40
:1014DC009A68BB69DB43334913408B603B685B689C
:1014EC0003F40013002B06D02E4BDA682D49BB6990
:1014FC001343CB6006E02B4BDA68BB69DB4329490D
:10150C001340CB603B685B6803F40033002B06D0C0
:10151C00244B5A682349BB6913434B6006E0214BAB
:10152C005A68BB69DB431F4913404B603B685B68DF
:10153C0003F48033002B06D01A4B1A681949BB6987
:10154C0013430B6006E0174B1A68BB69DB43154964
:10155C0013400B607B6A01337B623B681A687B6AC1
:10156C0022FA03F3002B7FF4AFAE00BF00BF2C3781
:10157C00BD4680BC704700BF000032100000311027
:10158C0000002210000021100000121000001110A9
:10159C00001002400000014000080140000C014016
:1015AC00001001400004014080B485B000AF7860A9
:1015BC000B467B807B689A687B881340002B02D09B
:1015CC000123FB7301E00023FB73FB7B18461437EC
:1015DC00BD4680BC704780B483B000AF78600B46CA
:1015EC007B8013467B707B78002B03D07A887B68DA
:1015FC001A6103E07B881A047B681A6100BF0C3700
:10160C00BD4680BC7047000080B586B000AF7860E6
:10161C007B68002B01D101236CE27B681B6803F013
:10162C000103002B00F08780924B5B6803F00C03E6
:10163C00042B0CD08F4B5B6803F00C03082B12D1DE
:10164C008C4B5B6803F48033B3F5803F0BD1894B33
:10165C001B6803F40033002B6CD07B685B68002B99
:10166C0068D1012346E27B685B68B3F5803F06D105
:10167C00804B1B687F4A43F4803313602EE07B68F9
:10168C005B68002B0CD17B4B1B687A4A23F48033AC
:10169C001360784B1B68774A23F4802313601DE09A
:1016AC007B685B68B3F5A02F0CD1724B1B68714A39
:1016BC0043F4802313606F4B1B686E4A43F48033F2
:1016CC0013600BE06B4B1B686A4A23F48033136086
:1016DC00684B1B68674A23F4802313607B685B6844
:1016EC00002B13D0FFF7CEFC386108E0FFF7CAFCE3
:1016FC0002463B69D31A642B01D90323FAE15D4BF3
:10170C001B6803F40033002BF0D014E0FFF7BAFC95
:10171C00386108E0FFF7B6FC02463B69D31A642B2C
:10172C0001D90323E6E1534B1B6803F40033002B70
:10173C00F0D100E000BF7B681B6803F00203002BB4
:10174C0063D04C4B5B6803F00C03002B0BD0494B64
:10175C005B6803F00C03082B1CD1464B5B6803F44D
:10176C008033002B16D1434B1B6803F00203002B74
:10177C0005D07B681B69012B01D00123BAE13D4BDD
:10178C001B6823F0F8027B685B69DB003949134363
:10179C000B603AE07B681B69002B20D0364B012292
:1017AC001A60FFF76FFC386108E0FFF76BFC02462C
:1017BC003B69D31A022B01D903239BE12D4B1B68E8
:1017CC0003F00203002BF0D02A4B1B6823F0F80225
:1017DC007B685B69DB00274913430B6015E0264BE4
:1017EC0000221A60FFF74EFC386108E0FFF74AFC54
:1017FC0002463B69D31A022B01D903237AE11D4B14
:10180C001B6803F00203002BF0D17B681B6803F00C
:10181C000803002B3AD07B689B69002B19D0174B1F
:10182C0001221A60FFF72EFC386108E0FFF72AFC52
:10183C0002463B69D31A022B01D903235AE10D4B03
:10184C005B6A03F00203002BF0D0012000F09AFA3F
:10185C001CE00A4B00221A60FFF714FC38610FE001
:10186C00FFF710FC02463B69D31A022B08D903235D
:10187C0040E100BF0010024000004242800442429E
:10188C009E4B5B6A03F00203002BE9D17B681B685B
:10189C0003F00403002B00F0A6800023FB75974B8C
:1018AC00DB6903F08053002B0DD1944BDB69934A19
:1018BC0043F08053D361914BDB6903F08053BB60E1
:1018CC00BB680123FB758E4B1B6803F48073002BE4
:1018DC0018D18B4B1B688A4A43F480731360FFF753
:1018EC00D1FB386108E0FFF7CDFB02463B69D31A08
:1018FC00642B01D90323FDE0814B1B6803F4807337
:10190C00002BF0D07B68DB68012B06D17B4B1B6A6C
:10191C007A4A43F0010313622DE07B68DB68002BED
:10192C000CD1764B1B6A754A23F001031362734B7F
:10193C001B6A724A23F0040313621CE07B68DB68A9
:10194C00052B0CD16D4B1B6A6C4A43F004031362DC
:10195C006A4B1B6A694A43F0010313620BE0674B45
:10196C001B6A664A23F001031362644B1B6A634AC9
:10197C0023F0040313627B68DB68002B15D0FFF7A0
:10198C0081FB38610AE0FFF77DFB02463B69D31A05
:10199C0041F28832934201D90323ABE0574B1B6AC7
:1019AC0003F00203002BEED014E0FFF76BFB386161
:1019BC000AE0FFF767FB02463B69D31A41F2883213
:1019CC00934201D9032395E04C4B1B6A03F00203AD
:1019DC00002BEED1FB7D012B05D1484BDB69474A2F
:1019EC0023F08053D3617B68DB69002B00F081808E
:1019FC00424B5B6803F00C03082B61D07B68DB69FE
:101A0C00022B46D13F4B00221A60FFF73BFB38619B
:101A1C0008E0FFF737FB02463B69D31A022B01D9CA
:101A2C00032367E0354B1B6803F00073002BF0D1E8
:101A3C007B681B6AB3F5803F08D1304B5B6823F49D
:101A4C0000327B689B682D4913434B602B4B5B68C2
:101A5C0023F474127B68196A7B685B6A0B43274911
:101A6C0013434B60274B01221A60FFF70BFB3861C5
:101A7C0008E0FFF707FB02463B69D31A022B01D99A
:101A8C00032337E01D4B1B6803F00073002BF0D0D1
:101A9C002FE01C4B00221A60FFF7F4FA386108E0C3
:101AAC00FFF7F0FA02463B69D31A022B01D9032344
:101ABC0020E0124B1B6803F00073002BF0D118E0F0
:101ACC007B68DB69012B01D1012313E00B4B5B68B5
:101ADC00FB60FB6803F480327B681B6A9A4206D178
:101AEC00FB6803F470127B685B6A9A4201D0012395
:101AFC0000E0002318461837BD4680BD0010024098
:101B0C00007000406000424280B584B000AF786045
:101B1C0039607B68002B01D10123D0E06A4B1B6834
:101B2C0003F007033A689A4210D9674B1B6823F0FD
:101B3C00070265493B6813430B60634B1B6803F05A
:101B4C0007033A689A4201D00123B8E07B681B680E
:101B5C0003F00203002B20D07B681B6803F0040306
:101B6C00002B05D0594B5B68584A43F4E063536033
:101B7C007B681B6803F00803002B05D0534B5B6894
:101B8C00524A43F460535360504B5B6823F0F002AD
:101B9C007B689B684D4913434B607B681B6803F063
:101BAC000103002B40D07B685B68012B07D1474BAE
:101BBC001B6803F40033002B15D101237FE07B68F5
:101BCC005B68022B07D1414B1B6803F00073002BA1
:101BDC0009D1012373E03D4B1B6803F00203002B7A
:101BEC0001D101236BE0394B5B6823F003027B6866
:101BFC005B68364913434B60FFF744FAF8600AE020
:101C0C00FFF740FA0246FB68D31A41F2883293423E
:101C1C0001D9032353E02D4B5B6803F00C027B6866
:101C2C005B689B009A42EBD1274B1B6803F00703C0
:101C3C003A689A4210D2244B1B6823F007022249BF
:101C4C003B6813430B60204B1B6803F007033A6897
:101C5C009A4201D0012332E07B681B6803F0040335
:101C6C00002B08D0194B5B6823F4E0627B68DB68BF
:101C7C00164913434B607B681B6803F00803002B69
:101C8C0009D0124B5B6823F460527B681B69DB0044
:101C9C000E4913434B6000F021F802460B4B5B6876
:101CAC001B0903F00F030A49CB5C22FA03F3094A20
:101CBC001360094B1B681846FFF7A2F9002318465E
:101CCC001037BD4680BD00BF00200240001002400E
:101CDC0014260008580000205C00002080B487B057
:101CEC0000AF0023FB600023BB6000237B6100235B
:101CFC007B6000233B611E4B5B68FB60FB6803F061
:101D0C000C03042B02D0082B03D027E0194B3B61AA
:101D1C0027E0FB689B0C03F00F03174AD35C7B6036
:101D2C00FB6803F48033002B10D0114B5B685B0C09
:101D3C0003F00103114AD35CBB607B680D4A02FBC4
:101D4C0003F2BB68B2FBF3F37B6104E07B680C4AE3
:101D5C0002FB03F37B617B693B6102E0054B3B615A
:101D6C0000BF3B6918461C37BD4680BC704700BF9E
:101D7C000010024000127A002426000834260008C5
:101D8C0000093D0080B485B000AF78600A4B1B6839
:101D9C000A4AA2FB03235B0A7A6802FB03F3FB608B
:101DAC0000BFFB685A1EFA60002BF9D100BF00BFC0
:101DBC001437BD4680BC704758000020D34D6210CC
:101DCC0080B582B000AF78607B68002B01D1012315
:101DDC0041E07B6893F83D30DBB2002B06D17B6889
:101DEC00002283F83C207868FFF772F87B680222A7
:101DFC0083F83D207B681A687B68043319461046CB
:101E0C0000F056FA7B68012283F846207B68012299
:101E1C0083F83E207B68012283F83F207B680122F7
:101E2C0083F840207B68012283F841207B680122E3
:101E3C0083F842207B68012283F843207B680122CF
:101E4C0083F844207B68012283F845207B680122BB
:101E5C0083F83D20002318460837BD4680BD00009E
:101E6C0080B485B000AF78607B6893F83D30DBB20E
:101E7C00012B01D0012335E07B68022283F83D2041
:101E8C007B681B68DA687B681B6842F00102DA60C9
:101E9C007B681B68164A934209D07B681B68B3F1B8
:101EAC00804F04D07B681B68124A934211D17B6827
:101EBC001B689B6803F00703FB60FB68062B10D0C4
:101ECC007B681B681A687B681B6842F001021A6009
:101EDC0007E07B681B681A687B681B6842F001028C
:101EEC001A60002318461437BD4680BC704700BFEB
:101EFC00002C01400004004080B584B000AF786035
:101F0C007B681B68DB68FB607B681B681B69BB60BC
:101F1C00BB6803F00203002B20D0FB6803F0020324
:101F2C00002B1BD07B681B686FF002021A617B6868
:101F3C0001221A777B681B689B6903F00303002B53
:101F4C0003D0786800F098F905E0786800F08BF918
:101F5C00786800F09AF97B6800221A77BB6803F066
:101F6C000403002B20D0FB6803F00403002B1BD0D0
:101F7C007B681B686FF004021A617B6802221A7777
:101F8C007B681B689B6903F44073002B03D0786853
:101F9C0000F072F905E0786800F065F9786800F0F7
:101FAC0074F97B6800221A77BB6803F00803002BD6
:101FBC0020D0FB6803F00803002B1BD07B681B6848
:101FCC006FF008021A617B6804221A777B681B6821
:101FDC00DB6903F00303002B03D0786800F04CF9A5
:101FEC0005E0786800F03FF9786800F04EF97B68FE
:101FFC0000221A77BB6803F01003002B20D0FB687B
:10200C0003F01003002B1BD07B681B686FF01002D1
:10201C001A617B6808221A777B681B68DB6903F4FA
:10202C004073002B03D0786800F026F905E078683F
:10203C0000F019F9786800F028F97B6800221A770B
:10204C00BB6803F00103002B0CD0FB6803F0010309
:10205C00002B07D07B681B686FF001021A6178684F
:10206C00FEF75CFEBB6803F08003002B0CD0FB6812
:10207C0003F08003002B07D07B681B686FF0800295
:10208C001A61786800F06FFABB6803F04003002B0C
:10209C000CD0FB6803F04003002B07D07B681B6857
:1020AC006FF040021A61786800F0F8F8BB6803F032
:1020BC002003002B0CD0FB6803F02003002B07D06F
:1020CC007B681B686FF020021A61786800F042FA96
:1020DC0000BF1037BD4680BD80B584B000AF7860BE
:1020EC0039600023FB737B6893F83C30012B01D1E2
:1020FC000223B4E07B68012283F83C207B68022237
:10210C0083F83D207B681B689B68BB60BB6823F031
:10211C007703BB60BB6823F47F43BB607B681B68A1
:10212C00BA689A603B681B68B3F5005F3ED0B3F5A4
:10213C00005F00F28780B3F5805F00F08680B3F516
:10214C00805F7FD8702B1AD0702B7BD8602B50D02F
:10215C00602B77D8502B3CD0502B73D8402B58D0B9
:10216C00402B6FD8302B64D0302B6BD8202B60D009
:10217C00202B67D8002B5CD0102B5AD062E07B68E8
:10218C0018683B6899683B685A683B68DB6800F0E4
:10219C006AF97B681B689B68BB60BB6843F077037C
:1021AC00BB607B681B68BA689A604FE07B681868F4
:1021BC003B6899683B685A683B68DB6800F053F9E8
:1021CC007B681B689A687B681B6842F480429A6043
:1021DC003CE07B6818683B6859683B68DB681A46CA
:1021EC0000F0CAF87B681B685021184600F021F9F2
:1021FC002CE07B6818683B6859683B68DB681A46BA
:10220C0000F0E8F87B681B686021184600F011F9B3
:10221C001CE07B6818683B6859683B68DB681A46A9
:10222C0000F0AAF87B681B684021184600F001F901
:10223C000CE07B681A683B681B681946104600F076
:10224C00F8F803E00123FB7300E000BF7B68012278
:10225C0083F83D207B68002283F83C20FB7B1846EA
:10226C001037BD4680BD80B483B000AF786000BF2E
:10227C000C37BD4680BC704780B483B000AF78602B
:10228C0000BF0C37BD4680BC704780B483B000AF34
:10229C00786000BF0C37BD4680BC704780B483B0FB
:1022AC0000AF786000BF0C37BD4680BC70470000A3
:1022BC0080B485B000AF786039607B681B68FB60C8
:1022CC007B682B4A934207D07B68B3F1804F03D0D5
:1022DC007B68284A934208D1FB6823F07003FB60AB
:1022EC003B685B68FA681343FB607B68204A934247
:1022FC0007D07B68B3F1804F03D07B681D4A9342B3
:10230C0008D1FB6823F44073FB603B68DB68FA6818
:10231C001343FB60FB6823F080023B685B6913434B
:10232C00FB607B68FA681A603B689A687B68DA62C3
:10233C003B681A687B689A627B680D4A934203D1AA
:10234C003B681A697B681A637B6801225A617B6857
:10235C001B6903F00103002B05D07B681B6923F07C
:10236C0001027B681A6100BF1437BD4680BC704700
:10237C00002C01400004004080B487B000AFF8602E
:10238C00B9607A60FB681B6A7B61FB681B6A23F08F
:10239C000102FB681A62FB689B693B613B6923F095
:1023AC00F0033B617B681B013A6913433B617B691A
:1023BC0023F00A037B617A69BB6813437B61FB687A
:1023CC003A699A61FB687A691A6200BF1C37BD468C
:1023DC0080BC704780B487B000AFF860B9607A6099
:1023EC00FB681B6A7B61FB681B6A23F01002FB68AD
:1023FC001A62FB689B693B613B6923F470433B6148
:10240C007B681B033A6913433B617B6923F0A00390
:10241C007B61BB681B017A6913437B61FB683A697A
:10242C009A61FB687A691A6200BF1C37BD4680BC92
:10243C00704780B485B000AF786039607B689B686A
:10244C00FB60FB6823F07003FB603A68FB68134386
:10245C0043F00703FB607B68FA689A6000BF14378F
:10246C00BD4680BC704780B487B000AFF860B960DF
:10247C007A603B60FB689B687B617B6923F47F43DC
:10248C007B613B681A027B681A43BB6813437A6909
:10249C0013437B61FB687A699A6000BF1C37BD46A9
:1024AC0080BC704780B485B000AF786039607B68C1
:1024BC0093F83C30012B01D1022341E07B680122CF
:1024CC0083F83C207B68022283F83D207B681B68E4
:1024DC005B68FB607B681B689B68BB60FB6823F0D8
:1024EC007003FB603B681B68FA681343FB607B68F6
:1024FC001B68FA685A607B681B68144A934209D0BF
:10250C007B681B68B3F1804F04D07B681B68104A52
:10251C0093420CD1BB6823F08003BB603B685B68C3
:10252C00BA681343BB607B681B68BA689A607B68A7
:10253C00012283F83D207B68002283F83C20002395
:10254C0018461437BD4680BC704700BF002C0140B4
:10255C000004004080B483B000AF786000BF0C373B
:10256C00BD4680BC704780B483B000AF786000BFBC
:10257C000C37BD4680BC704770B500260C4D0D4C19
:10258C00641BA410A64209D100F022F800260A4DC3
:10259C000A4C641BA410A64205D170BD55F8043B2F
:1025AC0098470136EEE755F8043B98470136F2E7B9
:1025BC003826000838260008382600083C26000873
:1025CC0003460244934200D1704703F8011BF9E71C
:1025DC00F8B500BFF8BC08BC9E467047F8B500BF04
:0825EC00F8BC08BC9E467047D4
:1025F4000010014000080140000801400020004094
:10260400008000003F065B4F666D7D077F6F000012
:10261400000000000000000001020304060708098E
:1026240002030405060708090A0B0C0D0E0F10100F
:04263400010200009F
:042638003101000864
:04263C000D01000884
:102640000100000001000000010000000100000086
:102650000100000001000000010000000100000076
:102660000100000001000000010000000100000066
:10267000C8000000C8000000C80000000100000001
:10268000050000000200000003000000050000003B
:10269000020000000300000000127A001000000099
:0426A0000100000035
:0400000508000F954B
:00000001FF
