:020000040800F2
:1000000000280020D5100008651000086B100008BB
:1000100071100008771000087D1000080000000033
:100020000000000000000000000000008310000835
:100030008F100008000000009B100008A7100008A7
:100040001D1100081D1100081D1100081D110008D8
:100050001D1100081D1100081D1100081D110008C8
:100060001D1100081D1100081D1100081D110008B8
:100070001D1100081D1100081D1100081D110008A8
:100080001D1100081D1100081D1100081D11000898
:100090001D1100081D1100081D1100081D11000888
:1000A0001D1100081D1100081D1100081D11000878
:1000B000B51000081D110008000000001D11000807
:1000C0001D11000800000000000000001D110008C4
:1000D000000000001D1100081D11000800000000B4
:1000E0001D1100081D1100081D110008000000006E
:1000F0000000000000000000000000000000000000
:0C01000000000000000000005FF808F1A3
:10010C0010B5054C237833B9044B13B10448AFF345
:10011C0000800123237010BD64000020000000004B
:10012C001C27000808B5034B1BB103490348AFF368
:10013C00008008BD00000000680000201C2700089B
:10014C0080B400AF064B1B68002B04D0044B00227C
:10015C001A60012300E000231846BD4680BC70479E
:10016C008000002080B400AF064B1B68002B04D02D
:10017C00044B00221A60012300E000231846BD4600
:10018C0080BC70478400002080B400AF064B1B6815
:10019C00002B04D0044B00221A60012300E0002342
:1001AC001846BD4680BC70478800002080B483B0E0
:1001BC0000AF78607B68002B03D10B4B01221A60D7
:1001CC000CE07B68012B03D1084B01221A6005E07F
:1001DC007B68022B02D1064B01221A6000BF0C3740
:1001EC00BD4680BC704700BF80000020840000200A
:1001FC008800002080B586B000AF474A07F108039D
:10020C0007CA83E80700454A3B4692E8030018609A
:10021C000433198000237B6176E0414A7B6952F8F4
:10022C00232040497B6941F823203F4A7B6952F8DF
:10023C0023203B497B6941F823207B699B0007F114
:10024C001802134453F8102C7B695B0007F118015A
:10025C000B4433F8183C1946104601F045FA034696
:10026C001946314A7B6942F823102E4A7B6952F8B1
:10027C0023202B497B6951F823309A422AD1284AF2
:10028C007B6952F8232028497B6951F823309A4224
:10029C0020D1264A7B6952F8232023497B6951F8E7
:1002AC0023309A422DD0204A7B6952F823201F49D3
:1002BC007B6941F823201C4A7B6952F82330012BBF
:1002CC0002D17869FFF772FF194A7B69C82142F89D
:1002DC00231016E0164A7B6952F823305A1E144933
:1002EC007B6941F82320124A7B6952F82330002B9A
:1002FC0007D17869FFF75AFF0D4A7B69C82142F88C
:10030C0023107B6901337B617B69022B85DD00BF88
:10031C0000BF1837BD4680BD3427000840270008B1
:10032C000C000020000000201800002024000020F9
:10033C003000002080B500AFFFF702FF0346002B12
:10034C004DD0544B1B780133DAB2524B1A70514BCF
:10035C001B78042B2BD9504B00221A704F4B1B6867
:10036C004F4A13604D4B1A684E4B1B6813444E4A50
:10037C0013604A4B1B684D4A1360484B1B68642240
:10038C0002FB03F3184600F06BFD642000F090FDB7
:10039C0000F09EFA444B1B68DBB2444A1268D2B29E
:1003AC001146184600F076F93A4B01221A70404B70
:1003BC001B68404A13603B4B1B683F4A1360374B2A
:1003CC001B683E4A13603E4B00221A603D4B0022D4
:1003DC001A603B4B00221A60322000F07DFDFFF7C3
:1003EC00C1FE0346002B28D02A4B1B78042B1AD0B5
:1003FC00042B24DC022B02D0032B0AD01FE02D4B44
:10040C001B68622B1DDC2B4B1B680133294A1360C4
:10041C0017E0294B1B68622B15DC274B1B6801333B
:10042C00254A13600FE0254B1B68622B0DDC234B18
:10043C001B680133214A136007E000BF06E000BFD0
:10044C0004E000BF02E000BF00E000BFFFF79CFE2D
:10045C000346002B19D00F4B1B78042B10D0042B08
:10046C0015DC022B02D0032B05D010E0114B1B68BE
:10047C000F4A13600CE0104B1B680A4A136007E02C
:10048C000E4B1B68054A136002E000BF00E000BF82
:10049C0000BF80BD3C0000208C00002048000020E4
:1004AC0090000020440000209400002098000020C0
:1004BC00400000204C000020500000205400002080
:1004CC009C000020A000002080B500AF684B1B787A
:1004DC001A46684B1B689A420AD0654B1B781A4621
:1004EC00644B1A60644B00221A60644B00221A6041
:1004FC005F4B1B78013B032B00F2B88001A252F832
:10050C0023F000BF770600082105000893050008BA
:10051C00050600085A4B1B68012B0FD1584B0022C3
:10052C001A60322000F0D8FC534B1B68002B0CBF18
:10053C0001230023DBB21A464F4B1A604E4B1B684B
:10054C00002B0FD0002202214E4801F0E4F80022CB
:10055C0010214C4801F0DFF801226C21494801F0D0
:10056C00DAF804E001227E21464801F0D4F800219B
:10057C00022000F08FF8444B1B68DBB202211846B6
:10058C0000F088F872E03E4B1B68012B0FD13C4BFE
:10059C0000221A60322000F09FFC374B1B68002BA6
:1005AC000CBF01230023DBB21A46334B1A60324BCB
:1005BC001B68002B0FD000220421324801F0ABF84D
:1005CC00002220212F4801F0A6F801225A212D48A3
:1005DC0001F0A1F804E001227E212A4801F09BF8E9
:1005EC000021032000F056F8284B1B68DBB20321D6
:1005FC00184600F04FF839E0214B1B68012B0FD146
:10060C001F4B00221A60322000F066FC1A4B1B684C
:10061C00002B0CBF01230023DBB21A46164B1A60C9
:10062C00154B1B68002B0FD000220821154801F038
:10063C0072F800224021134801F06DF80122362196
:10064C00104801F068F804E001227E210D4801F009
:10065C0062F80021042000F01DF80D4B1B68DBB282
:10066C000421184600F016F800E000BF00BF80BD62
:10067C003C000020A40000209C000020A0000020D2
:10068C00C8000020000801404C0000205000002051
:10069C005400002080B483B000AF03460A46FB71BF
:1006AC001346BB71FB79632B01D96323FB71BB79B7
:1006BC00632B01D96323BB71FB791D4AA2FB032376
:1006CC00DB08DBB21A461B4B9A5C1B4B1A70FA798F
:1006DC00174BA3FB0213D9080B469B000B445B0082
:1006EC00D31ADBB21A46134B9A5C134B5A70BB7974
:1006FC000F4AA2FB0323DB08DBB21A460D4B9A5CB4
:10070C000D4B9A70BA790A4BA3FB0213D9080B460E
:10071C009B000B445B00D31ADBB21A46054B9A5C68
:10072C00054BDA7000BF0C37BD4680BC704700BF6C
:10073C00CDCCCCCC48270008CC00002080B500AF35
:10074C0001224FF4F061024800F0E5FF00BF80BDCC
:10075C000008014080B582B000AF0346FB71FB7905
:10076C0003F00103002B0CBF01230023DBB21A465C
:10077C0002212A4800F0CFFFFB7903F00203002B83
:10078C000CBF01230023DBB21A460421234800F0DE
:10079C00C2FFFB7903F00403002B0CBF01230023E1
:1007AC00DBB21A4608211D4800F0B5FFFB7903F0B7
:1007BC000803002B0CBF01230023DBB21A461021C7
:1007CC00164800F0A8FFFB7903F01003002B0CBFB8
:1007DC0001230023DBB21A462021104800F09BFFB6
:1007EC00FB7903F02003002B0CBF01230023DBB2A9
:1007FC001A464021094800F08EFFFB7903F04003B4
:10080C00002B0CBF01230023DBB21A4680210348C6
:10081C0000F081FF00BF0837BD4680BD000C0140D1
:10082C0080B500AFFFF78AFF264B1B78032B3AD815
:10083C0001A252F823F000BF550800086B0800080D
:10084C00830800089B0800081F4B1B781846FFF70D
:10085C0081FF002280211D4800F05DFF23E01A4B30
:10086C005B781846FFF776FF00224FF4807117482B
:10087C0000F051FF17E0144B9B781846FFF76AFF06
:10088C0000224FF40071114800F045FF0BE00E4BB5
:10089C00DB781846FFF75EFF00224FF480610B48AF
:1008AC0000F039FF00BF074B1B7801335A4203F0AD
:1008BC00030302F0030258BF5342DAB2014B1A7021
:1008CC0000BF80BDA8000020CC0000200008014023
:1008DC0080B500AF01227E211F4800F01CFF1F4B8A
:1008EC001B78032B36D801A252F823F00909000813
:1008FC001F090008350900084B09000800220221D5
:10090C00154800F008FF00224021134800F003FFB7
:10091C0020E000220221104800F0FDFE00222021E0
:10092C000D4800F0F8FE15E0002208210A4800F0FE
:10093C00F2FE00221021084800F0EDFE0AE0002231
:10094C000421054800F0E7FE00221021024800F0C7
:10095C00E2FE00BF00BF80BD000801408C000020FB
:10096C0080B500AF414B1B78032B71D801A252F814
:10097C0023F000BF91090008C1090008F70900081D
:10098C00270A00083A4B1B683A4A1360384B1B681D
:10099C00394A1360364B1B68384A1360334B0122BB
:1009AC001A70334B1B68642202FB03F3184600F0E9
:1009BC0057FA4DE0324B1B682E4A13602C4B1A68C9
:1009CC002F4B1B6813442C4A13602D4B1B682B4A6E
:1009DC001360264B02221A70294B1B68642202FBFF
:1009EC0003F3184600F03CFA32E0214B1B68214A15
:1009FC0013601F4B1B68204A13601D4B1B681F4A5A
:100A0C0013601A4B03221A70194B1B68642202FBE9
:100A1C0003F3184600F024FA1AE0154B1A68184B29
:100A2C001B681344134A1360154B1B68124A13605E
:100A3C00134B1B68114A13600C4B00221A70104B9D
:100A4C001B68642202FB03F3184600F009FA00BF8E
:100A5C00FFF73EFF074B1B68DBB2074A1268D2B2A6
:100A6C0011461846FFF716FE00BF80BD8C00002013
:100A7C0044000020940000209800002090000020EA
:100A8C004800002080B500AF00F044FB00F0CCF82B
:100A9C0000F006F900F050F9574801F081FA574B75
:100AAC0000221A70564B1B68564A1360544B1A6836
:100ABC00554B1B681344554A1360514B1B68544AE1
:100ACC0013604F4B1B68642202FB03F3184600F0C3
:100ADC00C7F9642000F0ECF9022000F0D5F9FFF71B
:100AEC00F7FE4A4B1B68DBB2494A1268D2B2114678
:100AFC001846FFF7CFFD474B1B68012B07D1454B21
:100B0C0000221A60FFF78CFE022000F0BDF9FFF7FF
:100B1C0011FC414B1B78012B6AD1394B1A683A4BAB
:100B2C001B681A443D4B1B689A4231D03B4B052243
:100B3C001A60334B03221A60334B02221A602F4B7C
:100B4C0000221A702E4B1B682E4A13602C4B1A680D
:100B5C002D4B1B6813442D4A1360294B1B682C4AE0
:100B6C001360274B1B68642202FB03F3184600F04A
:100B7C0077F9642000F09CF9FFF7AAFE234B1B6861
:100B8C00DBB2234A1268D2B211461846FFF782FD37
:100B9C00234B1B68012B21D1214B00221A601B4BCC
:100BAC001B68012B04DD194B1B68013B174A1360B2
:100BBC00174B1B68012B04DD154B1B68013B144ABA
:100BCC001360124B1B68DBB2114A1268D2B2114689
:100BDC001846FFF75FFD642000F06AF9114B1B68A3
:100BEC00012B88D10F4B00221A60FFF7B9FE82E768
:100BFC00FFF76AFC7FE700BFD00000208C000020CC
:100C0C0048000020900000204400002094000020A8
:100C1C0098000020B80000203C000020400000207C
:100C2C00C0000020B000002080B590B000AF07F1EC
:100C3C00180328220021184601F062FD3B1D0022FA
:100C4C001A605A609A60DA601A610223BB61012350
:100C5C00BB621023FB6200237B6307F11803184669
:100C6C0000F072FD0346002B01D000F0F4F80F23C6
:100C7C007B600023BB600023FB6000233B610023EF
:100C8C007B613B1D0021184600F0DEFF0346002B64
:100C9C0001D000F0E0F800BF4037BD4680BD000039
:100CAC0080B586B000AF07F1080300221A605A60C5
:100CBC009A60DA603B4600221A605A601D4B4FF076
:100CCC0080421A601B4B41F63F725A60194B00224E
:100CDC009A60184B0922DA60164B00221A61154BE8
:100CEC0000229A61134801F00BF90346002B01D046
:100CFC0000F0B1F84FF48053BB6007F108031946BC
:100D0C000C4801F089FA0346002B01D000F0A3F83F
:100D1C0000233B6000237B603B461946054801F0ED
:100D2C0061FC0346002B01D000F095F800BF18378A
:100D3C00BD4680BDD000002080B588B000AF07F163
:100D4C00100300221A605A609A60DA60354B9B6976
:100D5C00344A43F010039361324B9B6903F0100348
:100D6C00FB60FB682F4B9B692E4A43F00403936195
:100D7C002C4B9B6903F00403BB60BB68294B9B693C
:100D8C00284A43F008039361264B9B6903F0080340
:100D9C007B607B68002240F2FE71234800F0BBFCB4
:100DAC00002247F6FE71214800F0B5FC4FF40053C9
:100DBC003B6100237B610123BB6107F110031946E2
:100DCC001B4800F017FB40F2FE733B6101237B6173
:100DDC000023BB610223FB6107F110031946124883
:100DEC0000F008FB47F6FE733B6101237B61002397
:100DFC00BB610223FB6107F1100319460B4800F09D
:100E0C00F9FA4FF440433B6100237B610123BB6142
:100E1C0007F110031946044800F0ECFA00BF203724
:100E2C00BD4680BD0010024000080140000C01408E
:100E3C000010014080B582B000AF78607B681B6801
:100E4C00B3F1804F03D1FFF7D5F900F059F800BF8B
:100E5C000837BD4680BD80B400AF72B600BFFEE758
:100E6C0080B483B000AF7860054A7B681360054B93
:100E7C0000221A6000BF0C37BD4680BC704700BF13
:100E8C00AC000020B000002080B483B000AF7860CC
:100E9C00054A7B681360054B00221A6000BF0C37B3
:100EAC00BD4680BC704700BFB4000020B8000020D5
:100EBC0080B483B000AF7860054A7B681360054B43
:100ECC0000221A6000BF0C37BD4680BC704700BFC3
:100EDC00BC000020C000002080B483B000AF78605C
:100EEC00054A7B681360054B00221A6000BF0C3763
:100EFC00BD4680BC704700BFC4000020C800002065
:100F0C0080B400AF214B1B68002B0BDD1F4B1B6803
:100F1C00013B1E4A13601D4B1B68002B02DC1C4B53
:100F2C0001221A601B4B1B68002B0BDD194B1B6835
:100F3C00013B184A1360174B1B68002B02DC164B45
:100F4C0001221A60154B1B68002B0BDD134B1B6821
:100F5C00013B124A1360114B1B68002B02DC104B37
:100F6C0001221A600F4B1B68002B0BDD0D4B1B680D
:100F7C00013B0C4A13600B4B1B68002B02DC0A4B29
:100F8C0001221A6000BFBD4680BC7047AC00002037
:100F9C00B0000020B4000020B8000020BC000020ED
:100FAC00C0000020C4000020C800002080B485B020
:100FBC0000AF154B9B69144A43F001039361124B2C
:100FCC009B6903F00103BB60BB680F4BDB690E4AE6
:100FDC0043F08053D3610C4BDB6903F080537B608F
:100FEC007B680A4B5B68FB60FB6823F0E063FB608B
:100FFC00FB6843F08063FB60044AFB68536000BFEE
:10100C001437BD4680BC7047001002400000014000
:10101C0080B584B000AF78607B681B68B3F1804FFB
:10102C0013D10C4BDB690B4A43F00103D361094B21
:10103C00DB6903F00103FB60FB68002200211C202C
:10104C0000F0A1F91C2000F0BAF900BF1037BD4622
:10105C0080BD00BF0010024080B400AFFEE780B43A
:10106C0000AFFEE780B400AFFEE780B400AFFEE750
:10107C0080B400AFFEE780B400AF00BFBD4680BCBB
:10108C00704780B400AF00BFBD4680BC704780B4D1
:10109C0000AF00BFBD4680BC704780B500AF00F00C
:1010AC007FF800BF80BD000080B500AF024800F0A3
:1010BC00C3FF00BF80BD00BFD000002080B400AFD4
:1010CC0000BFBD4680BC7047FFF7F8FF0B480C49CA
:1010DC000C4A002302E0D458C4500433C4188C4288
:1010EC00F9D3094A094C002301E013600432A242EF
:1010FC00FBD301F0E1FAFFF7C5FC704700000020BC
:10110C006400002080270008640000201C010020DF
:10111C00FEE7000080B500AF084B1B68074A43F0A0
:10112C0010031360032000F023F90F2000F008F8DF
:10113C00FFF73CFF0023184680BD00BF0020024093
:10114C0080B582B000AF7860124B1A68124B1B78D6
:10115C0019464FF47A73B3FBF1F3B2FBF3F3184671
:10116C0000F03BF90346002B01D001230EE07B6815
:10117C000F2B0AD8002279684FF0FF3000F003F9EA
:10118C00064A7B681360002300E0012318460837E9
:10119C00BD4680BD58000020600000205C0000208F
:1011AC0080B400AF054B1B781A46054B1B681344E3
:1011BC00034A136000BFBD4680BC7047600000202E
:1011CC001801002080B400AF024B1B681846BD46C6
:1011DC0080BC70471801002080B485B000AF7860E7
:1011EC007B6803F00703FB600C4BDB68BB60BA68E1
:1011FC004FF6FF031340BB60FB681A02BB68134336
:10120C0043F0BF6343F40033BB60044ABB68D36054
:10121C0000BF1437BD4680BC704700BF00ED00E036
:10122C0080B400AF044BDB681B0A03F007031846BD
:10123C00BD4680BC704700BF00ED00E080B483B0B9
:10124C0000AF0346FB7197F90730002B0BDBFB79E2
:10125C0003F01F02064997F907305B09012000FAD9
:10126C0002F241F8232000BF0C37BD4680BC70470A
:10127C0000E100E080B483B000AF03463960FB713D
:10128C0097F90730002B0ADB3B68DAB20C4997F967
:10129C0007301201D2B20B4483F800230AE03B68FA
:1012AC00DAB20849FB7903F00F03043B1201D2B206
:1012BC000B441A7600BF0C37BD4680BC704700BF8C
:1012CC0000E100E000ED00E080B489B000AFF86010
:1012DC00B9607A60FB6803F00703FB61FB69C3F13B
:1012EC000703042B28BF0423BB61FB690433062BC3
:1012FC0002D9FB69033B00E000237B614FF0FF3216
:10130C00BB6902FA03F3DA43BB681A407B699A4063
:10131C004FF0FF317B6901FA03F3D9437B680B4033
:10132C00134318462437BD4680BC704780B582B045
:10133C0000AF78607B68013BB3F1807F01D3012360
:10134C000FE00A4A7B68013B53600F214FF0FF30DE
:10135C00FFF790FF054B00229A60044B07221A609E
:10136C00002318460837BD4680BD00BF10E000E0E2
:10137C0080B582B000AF78607868FFF72DFF00BFB2
:10138C000837BD4680BD80B586B000AF0346B96056
:10139C007A60FB7300237B61FFF742FF78617A6808
:1013AC00B9687869FFF790FF024697F90F3011463C
:1013BC001846FFF75FFF00BF1837BD4680BD80B5EC
:1013CC0082B000AF0346FB7197F907301846FFF760
:1013DC0035FF00BF0837BD4680BD80B582B000AF79
:1013EC0078607868FFF7A2FF034618460837BD46B9
:1013FC0080BD000080B48BB000AF786039600023F2
:10140C007B6200233B6248E101227B6A02FA03F310
:10141C00FB613B681B68FA691340BB61BA69FB69E5
:10142C009A4240F037813B685B68A34A93425ED096
:10143C00A14A934275D8A14A934258D09F4A9342ED
:10144C006FD89F4A934252D09D4A934269D89D4A85
:10145C0093424CD09B4A934263D89B4A934246D0CA
:10146C00994A93425DD8122B2AD8122B59D801A233
:10147C0052F823F0FB140008D5140008E7140008F8
:10148C00291500082F1500082F1500082F15000826
:10149C002F1500082F1500082F1500082F15000810
:1014AC002F1500082F1500082F1500082F15000800
:1014BC002F1500082F150008DD140008F114000882
:1014CC00824A934213D02CE03B68DB683B6229E0F4
:1014DC003B68DB6804333B6224E03B68DB68083321
:1014EC003B621FE03B68DB680C333B621AE03B68F5
:1014FC009B68002B02D104233B6213E03B689B6882
:10150C00012B05D108233B627B68FA691A6109E05B
:10151C0008233B627B68FA695A6103E000233B6253
:10152C0000E000BFBB69FF2B01D87B6801E07B6842
:10153C0004337B61BB69FF2B02D87B6A9B0002E002
:10154C007B6A083B9B003B617B691A680F213B69F6
:10155C0001FA03F3DB431A40396A3B6901FA03F3DE
:10156C001A437B691A603B685B6803F08053002B5D
:10157C0000F09080564B9B69554A43F001039361F0
:10158C00534B9B6903F00103BB60BB68514A7B6AF8
:10159C009B08023352F82330FB607B6A03F0030391
:1015AC009B000F2202FA03F3DB43FA681340FB6043
:1015BC007B68494A93420DD07B68484A934207D0D6
:1015CC007B68474A934201D1022304E0032302E0E3
:1015DC00012300E000237A6A02F003029200934098
:1015EC00FA681343FB603B497B6A9B080233FA6839
:1015FC0041F823203B685B6803F48013002B06D072
:10160C00384B9A683749BB6913438B6006E0354BFE
:10161C009A68BB69DB43334913408B603B685B685A
:10162C0003F40013002B06D02E4BDA682D49BB694E
:10163C001343CB6006E02B4BDA68BB69DB432949CB
:10164C001340CB603B685B6803F40033002B06D07F
:10165C00244B5A682349BB6913434B6006E0214B6A
:10166C005A68BB69DB431F4913404B603B685B689E
:10167C0003F48033002B06D01A4B1A681949BB6946
:10168C0013430B6006E0174B1A68BB69DB43154923
:10169C0013400B607B6A01337B623B681A687B6A80
:1016AC0022FA03F3002B7FF4AFAE00BF00BF2C3740
:1016BC00BD4680BC704700BF0000321000003110E6
:1016CC000000221000002110000012100000111068
:1016DC00001002400000014000080140000C0140D5
:1016EC00001001400004014080B485B000AF786068
:1016FC000B467B807B689A687B881340002B02D05A
:10170C000123FB7301E00023FB73FB7B18461437AA
:10171C00BD4680BC704780B483B000AF78600B4688
:10172C007B8013467B707B78002B03D07A887B6898
:10173C001A6103E07B881A047B681A6100BF0C37BE
:10174C00BD4680BC7047000080B586B000AF7860A5
:10175C007B68002B01D101236CE27B681B6803F0D2
:10176C000103002B00F08780924B5B6803F00C03A5
:10177C00042B0CD08F4B5B6803F00C03082B12D19D
:10178C008C4B5B6803F48033B3F5803F0BD1894BF2
:10179C001B6803F40033002B6CD07B685B68002B58
:1017AC0068D1012346E27B685B68B3F5803F06D1C4
:1017BC00804B1B687F4A43F4803313602EE07B68B8
:1017CC005B68002B0CD17B4B1B687A4A23F480336B
:1017DC001360784B1B68774A23F4802313601DE059
:1017EC007B685B68B3F5A02F0CD1724B1B68714AF8
:1017FC0043F4802313606F4B1B686E4A43F48033B1
:10180C0013600BE06B4B1B686A4A23F48033136044
:10181C00684B1B68674A23F4802313607B685B6802
:10182C00002B13D0FFF7CEFC386108E0FFF7CAFCA1
:10183C0002463B69D31A642B01D90323FAE15D4BB1
:10184C001B6803F40033002BF0D014E0FFF7BAFC54
:10185C00386108E0FFF7B6FC02463B69D31A642BEB
:10186C0001D90323E6E1534B1B6803F40033002B2F
:10187C00F0D100E000BF7B681B6803F00203002B73
:10188C0063D04C4B5B6803F00C03002B0BD0494B23
:10189C005B6803F00C03082B1CD1464B5B6803F40C
:1018AC008033002B16D1434B1B6803F00203002B33
:1018BC0005D07B681B69012B01D00123BAE13D4B9C
:1018CC001B6823F0F8027B685B69DB003949134322
:1018DC000B603AE07B681B69002B20D0364B012251
:1018EC001A60FFF76FFC386108E0FFF76BFC0246EB
:1018FC003B69D31A022B01D903239BE12D4B1B68A7
:10190C0003F00203002BF0D02A4B1B6823F0F802E3
:10191C007B685B69DB00274913430B6015E0264BA2
:10192C0000221A60FFF74EFC386108E0FFF74AFC12
:10193C0002463B69D31A022B01D903237AE11D4BD2
:10194C001B6803F00203002BF0D17B681B6803F0CB
:10195C000803002B3AD07B689B69002B19D0174BDE
:10196C0001221A60FFF72EFC386108E0FFF72AFC11
:10197C0002463B69D31A022B01D903235AE10D4BC2
:10198C005B6A03F00203002BF0D0012000F09AFAFE
:10199C001CE00A4B00221A60FFF714FC38610FE0C0
:1019AC00FFF710FC02463B69D31A022B08D903231C
:1019BC0040E100BF0010024000004242800442425D
:1019CC009E4B5B6A03F00203002BE9D17B681B681A
:1019DC0003F00403002B00F0A6800023FB75974B4B
:1019EC00DB6903F08053002B0DD1944BDB69934AD8
:1019FC0043F08053D361914BDB6903F08053BB60A0
:101A0C00BB680123FB758E4B1B6803F48073002BA2
:101A1C0018D18B4B1B688A4A43F480731360FFF711
:101A2C00D1FB386108E0FFF7CDFB02463B69D31AC6
:101A3C00642B01D90323FDE0814B1B6803F48073F5
:101A4C00002BF0D07B68DB68012B06D17B4B1B6A2B
:101A5C007A4A43F0010313622DE07B68DB68002BAC
:101A6C000CD1764B1B6A754A23F001031362734B3E
:101A7C001B6A724A23F0040313621CE07B68DB6868
:101A8C00052B0CD16D4B1B6A6C4A43F0040313629B
:101A9C006A4B1B6A694A43F0010313620BE0674B04
:101AAC001B6A664A23F001031362644B1B6A634A88
:101ABC0023F0040313627B68DB68002B15D0FFF75F
:101ACC0081FB38610AE0FFF77DFB02463B69D31AC4
:101ADC0041F28832934201D90323ABE0574B1B6A86
:101AEC0003F00203002BEED014E0FFF76BFB386120
:101AFC000AE0FFF767FB02463B69D31A41F28832D2
:101B0C00934201D9032395E04C4B1B6A03F002036B
:101B1C00002BEED1FB7D012B05D1484BDB69474AED
:101B2C0023F08053D3617B68DB69002B00F081804C
:101B3C00424B5B6803F00C03082B61D07B68DB69BC
:101B4C00022B46D13F4B00221A60FFF73BFB38615A
:101B5C0008E0FFF737FB02463B69D31A022B01D989
:101B6C00032367E0354B1B6803F00073002BF0D1A7
:101B7C007B681B6AB3F5803F08D1304B5B6823F45C
:101B8C0000327B689B682D4913434B602B4B5B6881
:101B9C0023F474127B68196A7B685B6A0B432749D0
:101BAC0013434B60274B01221A60FFF70BFB386184
:101BBC0008E0FFF707FB02463B69D31A022B01D959
:101BCC00032337E01D4B1B6803F00073002BF0D090
:101BDC002FE01C4B00221A60FFF7F4FA386108E082
:101BEC00FFF7F0FA02463B69D31A022B01D9032303
:101BFC0020E0124B1B6803F00073002BF0D118E0AF
:101C0C007B68DB69012B01D1012313E00B4B5B6873
:101C1C00FB60FB6803F480327B681B6A9A4206D136
:101C2C00FB6803F470127B685B6A9A4201D0012353
:101C3C0000E0002318461837BD4680BD0010024056
:101C4C00007000406000424280B584B000AF786004
:101C5C0039607B68002B01D10123D0E06A4B1B68F3
:101C6C0003F007033A689A4210D9674B1B6823F0BC
:101C7C00070265493B6813430B60634B1B6803F019
:101C8C0007033A689A4201D00123B8E07B681B68CD
:101C9C0003F00203002B20D07B681B6803F00403C5
:101CAC00002B05D0594B5B68584A43F4E0635360F2
:101CBC007B681B6803F00803002B05D0534B5B6853
:101CCC00524A43F460535360504B5B6823F0F0026C
:101CDC007B689B684D4913434B607B681B6803F022
:101CEC000103002B40D07B685B68012B07D1474B6D
:101CFC001B6803F40033002B15D101237FE07B68B4
:101D0C005B68022B07D1414B1B6803F00073002B5F
:101D1C0009D1012373E03D4B1B6803F00203002B38
:101D2C0001D101236BE0394B5B6823F003027B6824
:101D3C005B68364913434B60FFF744FAF8600AE0DE
:101D4C00FFF740FA0246FB68D31A41F288329342FD
:101D5C0001D9032353E02D4B5B6803F00C027B6825
:101D6C005B689B009A42EBD1274B1B6803F007037F
:101D7C003A689A4210D2244B1B6823F0070222497E
:101D8C003B6813430B60204B1B6803F007033A6856
:101D9C009A4201D0012332E07B681B6803F00403F4
:101DAC00002B08D0194B5B6823F4E0627B68DB687E
:101DBC00164913434B607B681B6803F00803002B28
:101DCC0009D0124B5B6823F460527B681B69DB0003
:101DDC000E4913434B6000F021F802460B4B5B6835
:101DEC001B0903F00F030A49CB5C22FA03F3094ADF
:101DFC001360094B1B681846FFF7A2F9002318461D
:101E0C001037BD4680BD00BF0020024000100240CC
:101E1C0054270008580000205C00002080B487B0D4
:101E2C0000AF0023FB600023BB6000237B61002319
:101E3C007B6000233B611E4B5B68FB60FB6803F01F
:101E4C000C03042B02D0082B03D027E0194B3B6169
:101E5C0027E0FB689B0C03F00F03174AD35C7B60F5
:101E6C00FB6803F48033002B10D0114B5B685B0CC8
:101E7C0003F00103114AD35CBB607B680D4A02FB83
:101E8C0003F2BB68B2FBF3F37B6104E07B680C4AA2
:101E9C0002FB03F37B617B693B6102E0054B3B6119
:101EAC0000BF3B6918461C37BD4680BC704700BF5D
:101EBC000010024000127A00642700087427000802
:101ECC0000093D0080B485B000AF78600A4B1B68F8
:101EDC000A4AA2FB03235B0A7A6802FB03F3FB604A
:101EEC0000BFFB685A1EFA60002BF9D100BF00BF7F
:101EFC001437BD4680BC704758000020D34D62108B
:101F0C0080B582B000AF78607B68002B01D10123D3
:101F1C0041E07B6893F83D30DBB2002B06D17B6847
:101F2C00002283F83C207868FFF772F87B68022265
:101F3C0083F83D207B681A687B6804331946104689
:101F4C0000F056FA7B68012283F846207B68012258
:101F5C0083F83E207B68012283F83F207B680122B6
:101F6C0083F840207B68012283F841207B680122A2
:101F7C0083F842207B68012283F843207B6801228E
:101F8C0083F844207B68012283F845207B6801227A
:101F9C0083F83D20002318460837BD4680BD00005D
:101FAC0080B485B000AF78607B6893F83D30DBB2CD
:101FBC00012B01D0012335E07B68022283F83D2000
:101FCC007B681B68DA687B681B6842F00102DA6088
:101FDC007B681B68164A934209D07B681B68B3F177
:101FEC00804F04D07B681B68124A934211D17B68E6
:101FFC001B689B6803F00703FB60FB68062B10D083
:10200C007B681B681A687B681B6842F001021A60C7
:10201C0007E07B681B681A687B681B6842F001024A
:10202C001A60002318461437BD4680BC704700BFA9
:10203C00002C01400004004080B584B000AF7860F3
:10204C007B681B68DB68FB607B681B681B69BB607B
:10205C00BB6803F00203002B20D0FB6803F00203E3
:10206C00002B1BD07B681B686FF002021A617B6827
:10207C0001221A777B681B689B6903F00303002B12
:10208C0003D0786800F098F905E0786800F08BF9D7
:10209C00786800F09AF97B6800221A77BB6803F025
:1020AC000403002B20D0FB6803F00403002B1BD08F
:1020BC007B681B686FF004021A617B6802221A7736
:1020CC007B681B689B6903F44073002B03D0786812
:1020DC0000F072F905E0786800F065F9786800F0B6
:1020EC0074F97B6800221A77BB6803F00803002B95
:1020FC0020D0FB6803F00803002B1BD07B681B6807
:10210C006FF008021A617B6804221A777B681B68DF
:10211C00DB6903F00303002B03D0786800F04CF963
:10212C0005E0786800F03FF9786800F04EF97B68BC
:10213C0000221A77BB6803F01003002B20D0FB6839
:10214C0003F01003002B1BD07B681B686FF0100290
:10215C001A617B6808221A777B681B68DB6903F4B9
:10216C004073002B03D0786800F026F905E07868FE
:10217C0000F019F9786800F028F97B6800221A77CA
:10218C00BB6803F00103002B0CD0FB6803F00103C8
:10219C00002B07D07B681B686FF001021A6178680E
:1021AC00FEF748FEBB6803F08003002B0CD0FB68E5
:1021BC0003F08003002B07D07B681B686FF0800254
:1021CC001A61786800F06FFABB6803F04003002BCB
:1021DC000CD0FB6803F04003002B07D07B681B6816
:1021EC006FF040021A61786800F0F8F8BB6803F0F1
:1021FC002003002B0CD0FB6803F02003002B07D02E
:10220C007B681B686FF020021A61786800F042FA54
:10221C0000BF1037BD4680BD80B584B000AF78607C
:10222C0039600023FB737B6893F83C30012B01D1A0
:10223C000223B4E07B68012283F83C207B680222F5
:10224C0083F83D207B681B689B68BB60BB6823F0F0
:10225C007703BB60BB6823F47F43BB607B681B6860
:10226C00BA689A603B681B68B3F5005F3ED0B3F563
:10227C00005F00F28780B3F5805F00F08680B3F5D5
:10228C00805F7FD8702B1AD0702B7BD8602B50D0EE
:10229C00602B77D8502B3CD0502B73D8402B58D078
:1022AC00402B6FD8302B64D0302B6BD8202B60D0C8
:1022BC00202B67D8002B5CD0102B5AD062E07B68A7
:1022CC0018683B6899683B685A683B68DB6800F0A3
:1022DC006AF97B681B689B68BB60BB6843F077033B
:1022EC00BB607B681B68BA689A604FE07B681868B3
:1022FC003B6899683B685A683B68DB6800F053F9A7
:10230C007B681B689A687B681B6842F480429A6001
:10231C003CE07B6818683B6859683B68DB681A4688
:10232C0000F0CAF87B681B685021184600F021F9B0
:10233C002CE07B6818683B6859683B68DB681A4678
:10234C0000F0E8F87B681B686021184600F011F972
:10235C001CE07B6818683B6859683B68DB681A4668
:10236C0000F0AAF87B681B684021184600F001F9C0
:10237C000CE07B681A683B681B681946104600F035
:10238C00F8F803E00123FB7300E000BF7B68012237
:10239C0083F83D207B68002283F83C20FB7B1846A9
:1023AC001037BD4680BD80B483B000AF786000BFED
:1023BC000C37BD4680BC704780B483B000AF7860EA
:1023CC0000BF0C37BD4680BC704780B483B000AFF3
:1023DC00786000BF0C37BD4680BC704780B483B0BA
:1023EC0000AF786000BF0C37BD4680BC7047000062
:1023FC0080B485B000AF786039607B681B68FB6087
:10240C007B682B4A934207D07B68B3F1804F03D093
:10241C007B68284A934208D1FB6823F07003FB6069
:10242C003B685B68FA681343FB607B68204A934205
:10243C0007D07B68B3F1804F03D07B681D4A934271
:10244C0008D1FB6823F44073FB603B68DB68FA68D7
:10245C001343FB60FB6823F080023B685B6913430A
:10246C00FB607B68FA681A603B689A687B68DA6282
:10247C003B681A687B689A627B680D4A934203D169
:10248C003B681A697B681A637B6801225A617B6816
:10249C001B6903F00103002B05D07B681B6923F03B
:1024AC0001027B681A6100BF1437BD4680BC7047BF
:1024BC00002C01400004004080B487B000AFF860ED
:1024CC00B9607A60FB681B6A7B61FB681B6A23F04E
:1024DC000102FB681A62FB689B693B613B6923F054
:1024EC00F0033B617B681B013A6913433B617B69D9
:1024FC0023F00A037B617A69BB6813437B61FB6839
:10250C003A699A61FB687A691A6200BF1C37BD464A
:10251C0080BC704780B487B000AFF860B9607A6057
:10252C00FB681B6A7B61FB681B6A23F01002FB686B
:10253C001A62FB689B693B613B6923F470433B6106
:10254C007B681B033A6913433B617B6923F0A0034F
:10255C007B61BB681B017A6913437B61FB683A6939
:10256C009A61FB687A691A6200BF1C37BD4680BC51
:10257C00704780B485B000AF786039607B689B6829
:10258C00FB60FB6823F07003FB603A68FB68134345
:10259C0043F00703FB607B68FA689A6000BF14374E
:1025AC00BD4680BC704780B487B000AFF860B9609E
:1025BC007A603B60FB689B687B617B6923F47F439B
:1025CC007B613B681A027B681A43BB6813437A69C8
:1025DC0013437B61FB687A699A6000BF1C37BD4668
:1025EC0080BC704780B485B000AF786039607B6880
:1025FC0093F83C30012B01D1022341E07B6801228E
:10260C0083F83C207B68022283F83D207B681B68A2
:10261C005B68FB607B681B689B68BB60FB6823F096
:10262C007003FB603B681B68FA681343FB607B68B4
:10263C001B68FA685A607B681B68144A934209D07D
:10264C007B681B68B3F1804F04D07B681B68104A11
:10265C0093420CD1BB6823F08003BB603B685B6882
:10266C00BA681343BB607B681B68BA689A607B6866
:10267C00012283F83D207B68002283F83C20002354
:10268C0018461437BD4680BC704700BF002C014073
:10269C000004004080B483B000AF786000BF0C37FA
:1026AC00BD4680BC704780B483B000AF786000BF7B
:1026BC000C37BD4680BC704770B500260C4D0D4CD8
:1026CC00641BA410A64209D100F022F800260A4D82
:1026DC000A4C641BA410A64205D170BD55F8043BEE
:1026EC0098470136EEE755F8043B98470136F2E778
:1026FC007827000878270008782700087C2700082E
:10270C0003460244934200D1704703F8011BF9E7DA
:10271C00F8B500BFF8BC08BC9E467047F8B500BFC2
:08272C00F8BC08BC9E46704792
:102734000010014000080140000801400020004052
:10274400008000003F065B4F666D7D077F6F0000D1
:10275400000000000000000001020304060708094D
:1027640002030405060708090A0B0C0D0E0F1010CE
:04277400010200005E
:042778003101000823
:04277C000D01000843
:102780000100000001000000010000000100000045
:102790000100000001000000010000000100000035
:1027A0000100000001000000010000000100000025
:1027B000C8000000C8000000C800000001000000C0
:1027C00005000000020000000300000005000000FA
:1027D000020000000300000000127A001000000058
:0427E00001000000F4
:04000005080010D50A
:00000001FF
